{
  "address": "0xC1610677A3161f51e660d08D7aeD3120556256bf",
  "abi": [
    {
      "inputs": [
        {
          "internalType": "uint256",
          "name": "_tokenId",
          "type": "uint256"
        },
        {
          "internalType": "uint256",
          "name": "_balanceOf",
          "type": "uint256"
        },
        {
          "internalType": "uint256",
          "name": "_lockedEnd",
          "type": "uint256"
        },
        {
          "internalType": "uint256",
          "name": "_value",
          "type": "uint256"
        }
      ],
      "name": "_tokenURI",
      "outputs": [
        {
          "internalType": "string",
          "name": "output",
          "type": "string"
        }
      ],
      "stateMutability": "pure",
      "type": "function"
    },
    {
      "inputs": [
        {
          "internalType": "uint256",
          "name": "value",
          "type": "uint256"
        }
      ],
      "name": "humanize",
      "outputs": [
        {
          "internalType": "string",
          "name": "",
          "type": "string"
        }
      ],
      "stateMutability": "pure",
      "type": "function"
    }
  ],
  "transactionHash": "0xbdbc3161b7cbe0e5e75a119aada00b01f9fe10265bc4a1e37b6636e0cb1c3f98",
  "args": [],
  "numDeployments": 2,
  "solcInputHash": "2fb576a6f6f472b73989d9f7f6cb81ea",
  "bytecode": "0x608060405234801561001057600080fd5b50610dce806100206000396000f3fe608060405234801561001057600080fd5b50600436106100365760003560e01c80632b3596291461003b578063dd9ec14914610064575b600080fd5b61004e61004936600461066f565b610077565b60405161005b91906106b8565b60405180910390f35b61004e6100723660046106eb565b6101d5565b60606103e88210156100925761008c8261030c565b92915050565b60006100b360036100a285610415565b6100ac9190610749565b60056104ed565b6040805161010081018252600160c08201818152606b60f81b60e0840152825282518084018452818152604d60f81b6020828101919091528084019190915283518085018552828152602160f91b818301528385015283518085018552828152601560fa1b81830152606084015283518085018552918252605160f81b82820152608083019190915282518084019093526002835261515160f01b9083015260a0810191909152909150600061016a83600361075d565b61017590600a610860565b61017f9086610749565b905061018a8161030c565b8261019660018661086c565b600681106101a6576101a6610883565b60200201516040516020016101bc929190610899565b6040516020818303038152906040529350505050919050565b606060405180610120016040528060fd8152602001610c5c60fd91399050806101fd8661030c565b60405160200161020e9291906108c8565b60405160208183030381529060405290508061022985610077565b60405160200161023a929190610944565b60405160208183030381529060405290508061025584610077565b6040516020016102669291906109c4565b60405160208183030381529060405290508061028183610077565b604051602001610292929190610a44565b604051602081830303815290604052905060006102df6102b18761030c565b6102ba84610505565b6040516020016102cb929190610a9f565b604051602081830303815290604052610505565b9050806040516020016102f29190610bbb565b604051602081830303815290604052915050949350505050565b6060816000036103335750506040805180820190915260018152600360fc1b602082015290565b8160005b811561035d578061034781610c00565b91506103569050600a83610749565b9150610337565b60008167ffffffffffffffff81111561037857610378610c19565b6040519080825280601f01601f1916602001820160405280156103a2576020820181803683370190505b5090505b841561040d576103b760018361086c565b91506103c4600a86610c2f565b6103cf906030610c43565b60f81b8183815181106103e4576103e4610883565b60200101906001600160f81b031916908160001a905350610406600a86610749565b94506103a6565b949350505050565b60008072184f03e93ff9f4daa797ed6e38ed64bf6a1f0160401b83106104545772184f03e93ff9f4daa797ed6e38ed64bf6a1f0160401b830492506040015b6d04ee2d6d415b85acef81000000008310610480576d04ee2d6d415b85acef8100000000830492506020015b662386f26fc10000831061049e57662386f26fc10000830492506010015b6305f5e10083106104b6576305f5e100830492506008015b61271083106104ca57612710830492506004015b606483106104dc576064830492506002015b600a831061008c5760010192915050565b60008183106104fc57816104fe565b825b9392505050565b80516060906000819003610529575050604080516020810190915260008152919050565b60006003610538836002610c43565b6105429190610749565b61054d90600461075d565b9050600061055c826020610c43565b67ffffffffffffffff81111561057457610574610c19565b6040519080825280601f01601f19166020018201604052801561059e576020820181803683370190505b5090506000604051806060016040528060408152602001610d59604091399050600181016020830160005b8681101561062a576003818a01810151603f601282901c8116860151600c83901c8216870151600684901c831688015192909316870151600891821b60ff94851601821b92841692909201901b91160160e01b8352600490920191016105c9565b506003860660018114610644576002811461065557610661565b613d3d60f01b600119830152610661565b603d60f81b6000198301525b505050918152949350505050565b60006020828403121561068157600080fd5b5035919050565b60005b838110156106a357818101518382015260200161068b565b838111156106b2576000848401525b50505050565b60208152600082518060208401526106d7816040850160208701610688565b601f01601f19169190910160400192915050565b6000806000806080858703121561070157600080fd5b5050823594602084013594506040840135936060013592509050565b634e487b7160e01b600052601260045260246000fd5b634e487b7160e01b600052601160045260246000fd5b6000826107585761075861071d565b500490565b600081600019048311821515161561077757610777610733565b500290565b600181815b808511156107b757816000190482111561079d5761079d610733565b808516156107aa57918102915b93841c9390800290610781565b509250929050565b6000826107ce5750600161008c565b816107db5750600061008c565b81600181146107f157600281146107fb57610817565b600191505061008c565b60ff84111561080c5761080c610733565b50506001821b61008c565b5060208310610133831016604e8410600b841016171561083a575081810a61008c565b610844838361077c565b806000190482111561085857610858610733565b029392505050565b60006104fe83836107bf565b60008282101561087e5761087e610733565b500390565b634e487b7160e01b600052603260045260246000fd5b600083516108ab818460208801610688565b8351908301906108bf818360208801610688565b01949350505050565b600083516108da818460208801610688565b6503a37b5b2b7160d51b90830190815283516108fd816006840160208801610688565b7f3c2f746578743e3c7465787420783d2231302220793d2234302220636c61737360069290910191820152671e913130b9b2911f60c11b6026820152602e01949350505050565b60008351610956818460208801610688565b6903130b630b731b2a7b3160b51b908301908152835161097d81600a840160208801610688565b7f3c2f746578743e3c7465787420783d2231302220793d2236302220636c617373600a9290910191820152671e913130b9b2911f60c11b602a820152603201949350505050565b600083516109d6818460208801610688565b6903637b1b5b2b222b732160b51b90830190815283516109fd81600a840160208801610688565b7f3c2f746578743e3c7465787420783d2231302220793d2238302220636c617373600a9290910191820152671e913130b9b2911f60c11b602a820152603201949350505050565b60008351610a56818460208801610688565b6503b30b63ab2960d51b9083019081528351610a79816006840160208801610688565b6c1e17ba32bc3a1f1e17b9bb339f60991b60069290910191820152601301949350505050565b6f7b226e616d65223a20226c6f636b202360801b81528251600090610acb816010850160208801610688565b7f222c20226465736372697074696f6e223a202256656c6f63696d65746572206c6010918401918201527f6f636b732c2063616e206265207573656420746f20626f6f737420676175676560308201527f207969656c64732c20766f7465206f6e20746f6b656e20656d697373696f6e2c60508201527f20616e64207265636569766520627269626573222c2022696d616765223a202260708201527f646174613a696d6167652f7376672b786d6c3b6261736536342c00000000000060908201528351610ba08160aa840160208801610688565b61227d60f01b60aa929091019182015260ac01949350505050565b7f646174613a6170706c69636174696f6e2f6a736f6e3b6261736536342c000000815260008251610bf381601d850160208701610688565b91909101601d0192915050565b600060018201610c1257610c12610733565b5060010190565b634e487b7160e01b600052604160045260246000fd5b600082610c3e57610c3e61071d565b500690565b60008219821115610c5657610c56610733565b50019056fe3c73766720786d6c6e733d22687474703a2f2f7777772e77332e6f72672f323030302f73766722207072657365727665417370656374526174696f3d22784d696e594d696e206d656574222076696577426f783d223020302033353020333530223e3c7374796c653e2e62617365207b2066696c6c3a2077686974653b20666f6e742d66616d696c793a2073657269663b20666f6e742d73697a653a20313470783b207d3c2f7374796c653e3c726563742077696474683d223130302522206865696768743d2231303025222066696c6c3d22626c61636b22202f3e3c7465787420783d2231302220793d2232302220636c6173733d2262617365223e4142434445464748494a4b4c4d4e4f505152535455565758595a6162636465666768696a6b6c6d6e6f707172737475767778797a303132333435363738392b2fa26469706673582212202b3c07a62c9ee407e5ba4010397523f28acbba93689bab98a35a8cc2148e747164736f6c634300080d0033",
  "devdoc": {
    "kind": "dev",
    "methods": {},
    "version": 1
  },
  "userdoc": {
    "kind": "user",
    "methods": {},
    "version": 1
  },
  "storageLayout": {
    "storage": [],
    "types": null
  }
}