{
  "address": "0x1370806323A36730F69Cba8e7C9BEb59A973C27c",
  "abi": [
    {
      "inputs": [],
      "stateMutability": "nonpayable",
      "type": "constructor"
    },
    {
      "anonymous": false,
      "inputs": [
        {
          "indexed": true,
          "internalType": "address",
          "name": "token0",
          "type": "address"
        },
        {
          "indexed": true,
          "internalType": "address",
          "name": "token1",
          "type": "address"
        },
        {
          "indexed": false,
          "internalType": "bool",
          "name": "stable",
          "type": "bool"
        },
        {
          "indexed": false,
          "internalType": "address",
          "name": "pair",
          "type": "address"
        },
        {
          "indexed": false,
          "internalType": "uint256",
          "name": "",
          "type": "uint256"
        }
      ],
      "name": "PairCreated",
      "type": "event"
    },
    {
      "inputs": [],
      "name": "MAX_FEE",
      "outputs": [
        {
          "internalType": "uint256",
          "name": "",
          "type": "uint256"
        }
      ],
      "stateMutability": "view",
      "type": "function"
    },
    {
      "inputs": [],
      "name": "acceptFeeManager",
      "outputs": [],
      "stateMutability": "nonpayable",
      "type": "function"
    },
    {
      "inputs": [],
      "name": "acceptPauser",
      "outputs": [],
      "stateMutability": "nonpayable",
      "type": "function"
    },
    {
      "inputs": [],
      "name": "acceptTank",
      "outputs": [],
      "stateMutability": "nonpayable",
      "type": "function"
    },
    {
      "inputs": [
        {
          "internalType": "uint256",
          "name": "",
          "type": "uint256"
        }
      ],
      "name": "allPairs",
      "outputs": [
        {
          "internalType": "address",
          "name": "",
          "type": "address"
        }
      ],
      "stateMutability": "view",
      "type": "function"
    },
    {
      "inputs": [],
      "name": "allPairsLength",
      "outputs": [
        {
          "internalType": "uint256",
          "name": "",
          "type": "uint256"
        }
      ],
      "stateMutability": "view",
      "type": "function"
    },
    {
      "inputs": [
        {
          "internalType": "address",
          "name": "tokenA",
          "type": "address"
        },
        {
          "internalType": "address",
          "name": "tokenB",
          "type": "address"
        },
        {
          "internalType": "bool",
          "name": "stable",
          "type": "bool"
        }
      ],
      "name": "createPair",
      "outputs": [
        {
          "internalType": "address",
          "name": "pair",
          "type": "address"
        }
      ],
      "stateMutability": "nonpayable",
      "type": "function"
    },
    {
      "inputs": [],
      "name": "deployer",
      "outputs": [
        {
          "internalType": "address",
          "name": "",
          "type": "address"
        }
      ],
      "stateMutability": "view",
      "type": "function"
    },
    {
      "inputs": [],
      "name": "feeManager",
      "outputs": [
        {
          "internalType": "address",
          "name": "",
          "type": "address"
        }
      ],
      "stateMutability": "view",
      "type": "function"
    },
    {
      "inputs": [
        {
          "internalType": "bool",
          "name": "_stable",
          "type": "bool"
        }
      ],
      "name": "getFee",
      "outputs": [
        {
          "internalType": "uint256",
          "name": "",
          "type": "uint256"
        }
      ],
      "stateMutability": "view",
      "type": "function"
    },
    {
      "inputs": [],
      "name": "getInitializable",
      "outputs": [
        {
          "internalType": "address",
          "name": "",
          "type": "address"
        },
        {
          "internalType": "address",
          "name": "",
          "type": "address"
        },
        {
          "internalType": "bool",
          "name": "",
          "type": "bool"
        }
      ],
      "stateMutability": "view",
      "type": "function"
    },
    {
      "inputs": [
        {
          "internalType": "address",
          "name": "",
          "type": "address"
        },
        {
          "internalType": "address",
          "name": "",
          "type": "address"
        },
        {
          "internalType": "bool",
          "name": "",
          "type": "bool"
        }
      ],
      "name": "getPair",
      "outputs": [
        {
          "internalType": "address",
          "name": "",
          "type": "address"
        }
      ],
      "stateMutability": "view",
      "type": "function"
    },
    {
      "inputs": [],
      "name": "getVoter",
      "outputs": [
        {
          "internalType": "address",
          "name": "",
          "type": "address"
        }
      ],
      "stateMutability": "view",
      "type": "function"
    },
    {
      "inputs": [
        {
          "internalType": "address",
          "name": "",
          "type": "address"
        }
      ],
      "name": "isPair",
      "outputs": [
        {
          "internalType": "bool",
          "name": "",
          "type": "bool"
        }
      ],
      "stateMutability": "view",
      "type": "function"
    },
    {
      "inputs": [],
      "name": "isPaused",
      "outputs": [
        {
          "internalType": "bool",
          "name": "",
          "type": "bool"
        }
      ],
      "stateMutability": "view",
      "type": "function"
    },
    {
      "inputs": [],
      "name": "pairCodeHash",
      "outputs": [
        {
          "internalType": "bytes32",
          "name": "",
          "type": "bytes32"
        }
      ],
      "stateMutability": "pure",
      "type": "function"
    },
    {
      "inputs": [],
      "name": "pauser",
      "outputs": [
        {
          "internalType": "address",
          "name": "",
          "type": "address"
        }
      ],
      "stateMutability": "view",
      "type": "function"
    },
    {
      "inputs": [],
      "name": "pendingFeeManager",
      "outputs": [
        {
          "internalType": "address",
          "name": "",
          "type": "address"
        }
      ],
      "stateMutability": "view",
      "type": "function"
    },
    {
      "inputs": [],
      "name": "pendingPauser",
      "outputs": [
        {
          "internalType": "address",
          "name": "",
          "type": "address"
        }
      ],
      "stateMutability": "view",
      "type": "function"
    },
    {
      "inputs": [],
      "name": "pendingTank",
      "outputs": [
        {
          "internalType": "address",
          "name": "",
          "type": "address"
        }
      ],
      "stateMutability": "view",
      "type": "function"
    },
    {
      "inputs": [
        {
          "internalType": "bool",
          "name": "_stable",
          "type": "bool"
        },
        {
          "internalType": "uint256",
          "name": "_fee",
          "type": "uint256"
        }
      ],
      "name": "setFee",
      "outputs": [],
      "stateMutability": "nonpayable",
      "type": "function"
    },
    {
      "inputs": [
        {
          "internalType": "address",
          "name": "_feeManager",
          "type": "address"
        }
      ],
      "name": "setFeeManager",
      "outputs": [],
      "stateMutability": "nonpayable",
      "type": "function"
    },
    {
      "inputs": [
        {
          "internalType": "bool",
          "name": "_state",
          "type": "bool"
        }
      ],
      "name": "setPause",
      "outputs": [],
      "stateMutability": "nonpayable",
      "type": "function"
    },
    {
      "inputs": [
        {
          "internalType": "address",
          "name": "_pauser",
          "type": "address"
        }
      ],
      "name": "setPauser",
      "outputs": [],
      "stateMutability": "nonpayable",
      "type": "function"
    },
    {
      "inputs": [
        {
          "internalType": "address",
          "name": "_tank",
          "type": "address"
        }
      ],
      "name": "setTank",
      "outputs": [],
      "stateMutability": "nonpayable",
      "type": "function"
    },
    {
      "inputs": [
        {
          "internalType": "address",
          "name": "_team",
          "type": "address"
        }
      ],
      "name": "setTeam",
      "outputs": [],
      "stateMutability": "nonpayable",
      "type": "function"
    },
    {
      "inputs": [
        {
          "internalType": "address",
          "name": "_voter",
          "type": "address"
        }
      ],
      "name": "setVoter",
      "outputs": [],
      "stateMutability": "nonpayable",
      "type": "function"
    },
    {
      "inputs": [],
      "name": "stableFee",
      "outputs": [
        {
          "internalType": "uint256",
          "name": "",
          "type": "uint256"
        }
      ],
      "stateMutability": "view",
      "type": "function"
    },
    {
      "inputs": [],
      "name": "tank",
      "outputs": [
        {
          "internalType": "address",
          "name": "",
          "type": "address"
        }
      ],
      "stateMutability": "view",
      "type": "function"
    },
    {
      "inputs": [],
      "name": "team",
      "outputs": [
        {
          "internalType": "address",
          "name": "",
          "type": "address"
        }
      ],
      "stateMutability": "view",
      "type": "function"
    },
    {
      "inputs": [],
      "name": "volatileFee",
      "outputs": [
        {
          "internalType": "uint256",
          "name": "",
          "type": "uint256"
        }
      ],
      "stateMutability": "view",
      "type": "function"
    },
    {
      "inputs": [],
      "name": "voter",
      "outputs": [
        {
          "internalType": "address",
          "name": "",
          "type": "address"
        }
      ],
      "stateMutability": "view",
      "type": "function"
    }
  ],
  "transactionHash": "0xe330435fb01cc62284255c2db42f341c5c6b2868afedaf59cb9b6283394a096d",
  "args": [],
  "numDeployments": 2,
  "solcInputHash": "520759544ec25848a80bcd0ce5b535eb",
  "bytecode": "0x608060405234801561001057600080fd5b50600080546001600160a81b03191633610100810260ff1916919091178255600480546001600160a01b031990811683179091556003600281905560199055600a80549091169091179055615ac790819061006b90396000f3fe60806040523480156200001157600080fd5b5060043610620002195760003560e01c80638a4fa0d21162000125578063bedb86fb11620000af578063e1f76b44116200007a578063e1f76b4414620004a2578063e5e31b1314620004b9578063eb13c4cf14620004df578063f94c53c7146200051857600080fd5b8063bedb86fb1462000459578063d001e1ea1462000470578063d0fb0203146200047a578063d5f39488146200048e57600080fd5b8063ad8c3cd211620000f0578063ad8c3cd21462000406578063b187bd26146200041d578063b7f01bfc146200043c578063bc063e1a146200045057600080fd5b80638a4fa0d214620003bb5780639a7165e414620003cf5780639aab924814620003e35780639fd0506d14620003ed57600080fd5b80634bc2a65711620001a7578063574f2ba31162000172578063574f2ba3146200034a5780636801cc30146200035357806382dfdce4146200039057806385f2aef214620003a757600080fd5b80634bc2a65714620002e25780635084ed031462000315578063512b45ea146200031f5780635600bbcf146200033657600080fd5b80632d88af4a11620001e85780632d88af4a146200028757806340bbd775146200029e57806346c96aac14620002b7578063472d35b914620002cb57600080fd5b8063095cf5c6146200021e578063167a6f9014620002375780631e3dd18b14620002415780632b37f53c1462000275575b600080fd5b620002356200022f36600462000c85565b62000522565b005b62000235620005bb565b620002586200025236600462000caa565b620005fe565b6040516001600160a01b0390911681526020015b60405180910390f35b6006546001600160a01b031662000258565b620002356200029836600462000c85565b62000629565b620002a860025481565b6040519081526020016200026c565b60065462000258906001600160a01b031681565b62000235620002dc36600462000c85565b62000668565b62000235620002f336600462000c85565b600680546001600160a01b0319166001600160a01b0392909216919091179055565b620002a860035481565b620002a86200033036600462000cd5565b620006d8565b60085462000258906001600160a01b031681565b600c54620002a8565b620002586200036436600462000cf3565b600b6020908152600093845260408085208252928452828420905282529020546001600160a01b031681565b62000258620003a136600462000cf3565b620006f3565b60075462000258906001600160a01b031681565b60055462000258906001600160a01b031681565b60015462000258906001600160a01b031681565b620002a8620009de565b600054620002589061010090046001600160a01b031681565b620002356200041736600462000c85565b62000a12565b6000546200042b9060ff1681565b60405190151581526020016200026c565b60095462000258906001600160a01b031681565b620002a8603281565b620002356200046a36600462000cd5565b62000a4c565b6200023562000a7c565b60045462000258906001600160a01b031681565b600a5462000258906001600160a01b031681565b62000235620004b336600462000d3d565b62000aef565b6200042b620004ca36600462000c85565b600d6020526000908152604090205460ff1681565b600e54600f54604080516001600160a01b0393841681529282166020840152600160a01b90910460ff161515908201526060016200026c565b6200023562000bda565b600a546001600160a01b031633146200053a57600080fd5b6007546001600160a01b031615620005995760405162461bcd60e51b815260206004820152601e60248201527f546865207465616d2068617320616c7265616479206265656e207365742e000060448201526064015b60405180910390fd5b600780546001600160a01b0319166001600160a01b0392909216919091179055565b6001546001600160a01b03163314620005d357600080fd5b600154600080546001600160a01b0390921661010002610100600160a81b0319909216919091179055565b600c81815481106200060f57600080fd5b6000918252602090912001546001600160a01b0316905081565b60005461010090046001600160a01b031633146200064657600080fd5b600180546001600160a01b0319166001600160a01b0392909216919091179055565b6004546001600160a01b03163314620006b65760405162461bcd60e51b815260206004820152600f60248201526e3737ba103332b29036b0b730b3b2b960891b604482015260640162000590565b600580546001600160a01b0319166001600160a01b0392909216919091179055565b600081620006e957600354620006ed565b6002545b92915050565b6000826001600160a01b0316846001600160a01b0316036200073d5760405162461bcd60e51b8152602060048201526002602482015261494160f01b604482015260640162000590565b600080846001600160a01b0316866001600160a01b0316106200076257848662000765565b85855b90925090506001600160a01b038216620007a75760405162461bcd60e51b81526020600482015260026024820152615a4160f01b604482015260640162000590565b6001600160a01b038281166000908152600b6020908152604080832085851684528252808320881515845290915290205416156200080d5760405162461bcd60e51b8152602060048201526002602482015261504560f01b604482015260640162000590565b6040516bffffffffffffffffffffffff19606084811b8216602084015283901b16603482015284151560f81b604882015260009060490160408051601f19818403018152908290528051602090910120600f80546001600160a01b038087166001600160a01b03198b1515600160a01b0281166001600160a81b03199094169390931717909255600e80549288169290911691909117905591508190620008b49062000c5a565b8190604051809103906000f5905080158015620008d5573d6000803e3d6000fd5b506001600160a01b038481166000818152600b602081815260408084208987168086529083528185208d15158087529084528286208054988a166001600160a01b0319998a168117909155828752948452828620878752845282862081875284528286208054891686179055600c8054600181810183557fdf6966c971051c3d54ec59162606531493a51404a002842f56009d7e5cf4a8c79091018054909a168717909955858752600d855295839020805460ff1916909817909755935481519687529186019290925290840152929650907fc4805696c66d7cf352fc1d6bb633ad5ee82f6cb577c453024b6e0eb8306c6fc99060600160405180910390a35050509392505050565b600060405180602001620009f29062000c5a565b6020820181038252601f19601f8201166040525080519060200120905090565b600a546001600160a01b0316331462000a2a57600080fd5b600880546001600160a01b0319166001600160a01b0392909216919091179055565b60005461010090046001600160a01b0316331462000a6957600080fd5b6000805460ff1916911515919091179055565b6007546001600160a01b0316331462000acb5760405162461bcd60e51b815260206004820152601060248201526f6e6f742070656e64696e67207465616d60801b604482015260640162000590565b600854600980546001600160a01b0319166001600160a01b03909216919091179055565b6004546001600160a01b0316331462000b3d5760405162461bcd60e51b815260206004820152600f60248201526e3737ba103332b29036b0b730b3b2b960891b604482015260640162000590565b603281111562000b7f5760405162461bcd60e51b815260206004820152600c60248201526b0cccaca40e8dede40d0d2ced60a31b604482015260640162000590565b8060000362000bc75760405162461bcd60e51b8152602060048201526013602482015272666565206d757374206265206e6f6e7a65726f60681b604482015260640162000590565b811562000bd45760025550565b60035550565b6005546001600160a01b0316331462000c365760405162461bcd60e51b815260206004820152601760248201527f6e6f742070656e64696e6720666565206d616e61676572000000000000000000604482015260640162000590565b600554600480546001600160a01b0319166001600160a01b03909216919091179055565b614d278062000d6b83390190565b80356001600160a01b038116811462000c8057600080fd5b919050565b60006020828403121562000c9857600080fd5b62000ca38262000c68565b9392505050565b60006020828403121562000cbd57600080fd5b5035919050565b8035801515811462000c8057600080fd5b60006020828403121562000ce857600080fd5b62000ca38262000cc4565b60008060006060848603121562000d0957600080fd5b62000d148462000c68565b925062000d246020850162000c68565b915062000d346040850162000cc4565b90509250925092565b6000806040838503121562000d5157600080fd5b62000d5c8362000cc4565b94602093909301359350505056fe61016060405260006002556000601055600060115560016016553480156200002657600080fd5b5033610100819052604080516311b25aab60e21b815290516346c96aac916004808201926020929091908290030181865afa1580156200006a573d6000803e3d6000fd5b505050506040513d601f19601f820116820180604052508101906200009091906200083c565b600860006101000a8154816001600160a01b0302191690836001600160a01b031602179055506000806000336001600160a01b031663eb13c4cf6040518163ffffffff1660e01b8152600401606060405180830381865afa158015620000fa573d6000803e3d6000fd5b505050506040513d601f19601f8201168201806040525081019062000120919062000861565b8015156080526001600160a01b0380831660c052831660a05260405192955090935091508390839062000153906200076b565b6001600160a01b03928316815291166020820152604001604051809103906000f08015801562000187573d6000803e3d6000fd5b506001600160a01b031660e0528015620003b957826001600160a01b03166395d89b416040518163ffffffff1660e01b8152600401600060405180830381865afa158015620001da573d6000803e3d6000fd5b505050506040513d6000823e601f3d908101601f19168201604052620002049190810190620008fc565b826001600160a01b03166395d89b416040518163ffffffff1660e01b8152600401600060405180830381865afa15801562000243573d6000803e3d6000fd5b505050506040513d6000823e601f3d908101601f191682016040526200026d9190810190620008fc565b60405160200162000280929190620009b4565b60405160208183030381529060405260009080519060200190620002a692919062000779565b50826001600160a01b03166395d89b416040518163ffffffff1660e01b8152600401600060405180830381865afa158015620002e6573d6000803e3d6000fd5b505050506040513d6000823e601f3d908101601f19168201604052620003109190810190620008fc565b826001600160a01b03166395d89b416040518163ffffffff1660e01b8152600401600060405180830381865afa1580156200034f573d6000803e3d6000fd5b505050506040513d6000823e601f3d908101601f19168201604052620003799190810190620008fc565b6040516020016200038c92919062000a0f565b60405160208183030381529060405260019080519060200190620003b292919062000779565b50620005d2565b826001600160a01b03166395d89b416040518163ffffffff1660e01b8152600401600060405180830381865afa158015620003f8573d6000803e3d6000fd5b505050506040513d6000823e601f3d908101601f19168201604052620004229190810190620008fc565b826001600160a01b03166395d89b416040518163ffffffff1660e01b8152600401600060405180830381865afa15801562000461573d6000803e3d6000fd5b505050506040513d6000823e601f3d908101601f191682016040526200048b9190810190620008fc565b6040516020016200049e92919062000a60565b60405160208183030381529060405260009080519060200190620004c492919062000779565b50826001600160a01b03166395d89b416040518163ffffffff1660e01b8152600401600060405180830381865afa15801562000504573d6000803e3d6000fd5b505050506040513d6000823e601f3d908101601f191682016040526200052e9190810190620008fc565b826001600160a01b03166395d89b416040518163ffffffff1660e01b8152600401600060405180830381865afa1580156200056d573d6000803e3d6000fd5b505050506040513d6000823e601f3d908101601f19168201604052620005979190810190620008fc565b604051602001620005aa92919062000abd565b60405160208183030381529060405260019080519060200190620005d092919062000779565b505b826001600160a01b031663313ce5676040518163ffffffff1660e01b8152600401602060405180830381865afa15801562000611573d6000803e3d6000fd5b505050506040513d601f19601f8201168201806040525081019062000637919062000adf565b6200064490600a62000c19565b6101208181525050816001600160a01b031663313ce5676040518163ffffffff1660e01b8152600401602060405180830381865afa1580156200068b573d6000803e3d6000fd5b505050506040513d601f19601f82011682018060405250810190620006b1919062000adf565b620006be90600a62000c19565b61014052505060408051606081018252428152600060208201818152928201818152600a8054600181018255925291517fc65a7bb8d6351c1cf70c95a316cc6a92839c986682d98bc35f958f4883f9d2a860039092029182015591517fc65a7bb8d6351c1cf70c95a316cc6a92839c986682d98bc35f958f4883f9d2a9830155517fc65a7bb8d6351c1cf70c95a316cc6a92839c986682d98bc35f958f4883f9d2aa909101555062000c66565b61037080620049b783390190565b828054620007879062000c2a565b90600052602060002090601f016020900481019282620007ab5760008555620007f6565b82601f10620007c657805160ff1916838001178555620007f6565b82800160010185558215620007f6579182015b82811115620007f6578251825591602001919060010190620007d9565b506200080492915062000808565b5090565b5b8082111562000804576000815560010162000809565b80516001600160a01b03811681146200083757600080fd5b919050565b6000602082840312156200084f57600080fd5b6200085a826200081f565b9392505050565b6000806000606084860312156200087757600080fd5b62000882846200081f565b925062000892602085016200081f565b915060408401518015158114620008a857600080fd5b809150509250925092565b634e487b7160e01b600052604160045260246000fd5b60005b83811015620008e6578181015183820152602001620008cc565b83811115620008f6576000848401525b50505050565b6000602082840312156200090f57600080fd5b81516001600160401b03808211156200092757600080fd5b818401915084601f8301126200093c57600080fd5b815181811115620009515762000951620008b3565b604051601f8201601f19908116603f011681019083821181831017156200097c576200097c620008b3565b816040528281528760208487010111156200099657600080fd5b620009a9836020830160208801620008c9565b979650505050505050565b6e029ba30b13632ab189020a6a690169608d1b815260008351620009e081600f850160208801620008c9565b602f60f81b600f91840191820152835162000a03816010840160208801620008c9565b01601001949350505050565b6473414d4d2d60d81b81526000835162000a31816005850160208801620008c9565b602f60f81b600591840191820152835162000a54816006840160208801620008c9565b01600601949350505050565b7002b37b630ba34b632ab189020a6a690169607d1b81526000835162000a8e816011850160208801620008c9565b602f60f81b601191840191820152835162000ab1816012840160208801620008c9565b01601201949350505050565b6476414d4d2d60d81b81526000835162000a31816005850160208801620008c9565b60006020828403121562000af257600080fd5b815160ff811681146200085a57600080fd5b634e487b7160e01b600052601160045260246000fd5b600181815b8085111562000b5b57816000190482111562000b3f5762000b3f62000b04565b8085161562000b4d57918102915b93841c939080029062000b1f565b509250929050565b60008262000b745750600162000c13565b8162000b835750600062000c13565b816001811462000b9c576002811462000ba75762000bc7565b600191505062000c13565b60ff84111562000bbb5762000bbb62000b04565b50506001821b62000c13565b5060208310610133831016604e8410600b841016171562000bec575081810a62000c13565b62000bf8838362000b1a565b806000190482111562000c0f5762000c0f62000b04565b0290505b92915050565b60006200085a60ff84168362000b63565b600181811c9082168062000c3f57607f821691505b60208210810362000c6057634e487b7160e01b600052602260045260246000fd5b50919050565b60805160a05160c05160e051610100516101205161014051613bc262000df5600039600081816105010152818161296a01528181612c5401528181612d160152612e210152600081816104de0152818161292901528181612c1501528181612d580152612dfb01526000818161090901528181610d5801528181610e290152818161133901528181611cb901526123030152600081816106fc0152611f1701526000818161058b015281816107510152818161086501528181610a4401528181610cec01528181611706015281816118f101528181611dbe01528181612460015281816127e001526128be015260008181610391015281816105630152818161072c01528181610a2301528181610ccb01528181611670015281816118cf01528181611d9c015281816123d8015281816125f3015281816126d101528181612c9601528181612cdd01528181612dc20152612e650152600081816104670152818161053301528181610d2001528181610df1015281816122d2015281816129010152612be10152613bc26000f3fe608060405234801561001057600080fd5b506004361061030c5760003560e01c80637ecebe001161019d578063b7f01bfc116100e9578063d21220a7116100a2578063dd62ed3e1161007c578063dd62ed3e146108a2578063ebeb31db146108cd578063f140a35a146108d5578063fff6cae9146108e857600080fd5b8063d21220a714610860578063d294f09314610887578063d505accf1461088f57600080fd5b8063b7f01bfc14610816578063bc25cf7714610829578063bda39cad1461083c578063bf944dbc14610845578063c245febc1461084e578063c5700a021461085757600080fd5b80639d63848a11610156578063a1ac4d1311610130578063a1ac4d13146107af578063a2a6aab1146107cf578063a9059cbb146107d7578063b22d8fe0146107ea57600080fd5b80639d63848a1461071e5780639e8cc04b1461077c5780639f767c881461078f57600080fd5b80637ecebe001461066957806389afcb44146106895780638a7b8cf2146106b157806391f36d65146106db57806395d89b41146106ef5780639af1d35a146106f757600080fd5b8063252c09d71161025c57806346c96aac116102155780635881c475116101ef5780635881c4751461061a5780635a76f25e1461062d5780636a6278421461063657806370a082311461064957600080fd5b806346c96aac146105d45780634d5a9f8a146105e7578063517b3f821461060757600080fd5b8063252c09d71461049c578063313ce567146104af57806332c0defd146104c9578063392f37e9146104d2578063443cb4bc146105b857806345a1de79146105c157600080fd5b806313e38a5b116102c95780631df8c717116102a35780631df8c7171461043a578063205aabf11461044257806322be3de11461046257806323b872dd1461048957600080fd5b806313e38a5b146103eb57806318160ddd146103f3578063199995661461040a57600080fd5b8063022c0d9f1461031157806306fdde03146103265780630902f1ac14610344578063095ea7b3146103695780630dfe16811461038c57806313345fe1146103cb575b600080fd5b61032461031f3660046135cb565b6108f0565b005b61032e61103d565b60405161033b9190613691565b60405180910390f35b600b54600c54600d545b6040805193845260208401929092529082015260600161033b565b61037c6103773660046136c4565b6110cb565b604051901515815260200161033b565b6103b37f000000000000000000000000000000000000000000000000000000000000000081565b6040516001600160a01b03909116815260200161033b565b6103de6103d93660046136f0565b611138565b60405161033b919061372b565b6103b3611334565b6103fc60025481565b60405190815260200161033b565b61032461041836600461376f565b600780546001600160a01b0319166001600160a01b0392909216919091179055565b61034e6113da565b6103fc61045036600461376f565b60136020526000908152604090205481565b61037c7f000000000000000000000000000000000000000000000000000000000000000081565b61037c61049736600461378c565b611449565b61034e6104aa3660046137cd565b611512565b6104b7601281565b60405160ff909116815260200161033b565b6103fc60105481565b600b54600c54604080517f000000000000000000000000000000000000000000000000000000000000000081527f000000000000000000000000000000000000000000000000000000000000000060208201529081019290925260608201527f0000000000000000000000000000000000000000000000000000000000000000151560808201526001600160a01b037f0000000000000000000000000000000000000000000000000000000000000000811660a08301527f00000000000000000000000000000000000000000000000000000000000000001660c082015260e00161033b565b6103fc600b5481565b6007546103b3906001600160a01b031681565b6008546103b3906001600160a01b031681565b6103fc6105f536600461376f565b60146020526000908152604090205481565b6103fc6106153660046136c4565b611545565b6103de6106283660046137e6565b61162d565b6103fc600c5481565b6103fc61064436600461376f565b61163c565b6103fc61065736600461376f565b60046020526000908152604090205481565b6103fc61067736600461376f565b60066020526000908152604090205481565b61069c61069736600461376f565b61189d565b6040805192835260208301919091520161033b565b6106b9611bba565b604080518251815260208084015190820152918101519082015260600161033b565b60095461037c90600160a01b900460ff1681565b61032e611c3a565b6103b37f000000000000000000000000000000000000000000000000000000000000000081565b604080516001600160a01b037f0000000000000000000000000000000000000000000000000000000000000000811682527f00000000000000000000000000000000000000000000000000000000000000001660208201520161033b565b6103fc61078a3660046137e6565b611c47565b6103fc61079d36600461376f565b60126020526000908152604090205481565b6103fc6107bd36600461376f565b60156020526000908152604090205481565b6103b3611cb4565b61037c6107e53660046136c4565b611d5a565b6103246107f8366004613829565b60098054911515600160a01b0260ff60a01b19909216919091179055565b6009546103b3906001600160a01b031681565b61032461083736600461376f565b611d70565b6103fc60115481565b6103fc600e5481565b6103fc600f5481565b6103fc600d5481565b6103b37f000000000000000000000000000000000000000000000000000000000000000081565b61069c611e8e565b61032461089d366004613846565b611fb5565b6103fc6108b03660046138bd565b600360209081526000928352604080842090915290825290205481565b600a546103fc565b6103fc6108e33660046138f6565b6122bd565b6103246123ab565b6016546001146108ff57600080fd5b60026016819055507f00000000000000000000000000000000000000000000000000000000000000006001600160a01b031663b187bd266040518163ffffffff1660e01b8152600401602060405180830381865afa158015610965573d6000803e3d6000fd5b505050506040513d601f19601f82011682018060405250810190610989919061391b565b1561099357600080fd5b60008511806109a25750600084115b6109d95760405162461bcd60e51b8152602060048201526003602482015262494f4160e81b60448201526064015b60405180910390fd5b600b54600c5481871080156109ed57508086105b610a1e5760405162461bcd60e51b8152602060048201526002602482015261125360f21b60448201526064016109d0565b6000807f00000000000000000000000000000000000000000000000000000000000000007f00000000000000000000000000000000000000000000000000000000000000006001600160a01b0389811690831614801590610a915750806001600160a01b0316896001600160a01b031614155b610ac25760405162461bcd60e51b8152602060048201526002602482015261125560f21b60448201526064016109d0565b8a15610ad357610ad3828a8d6124e5565b8915610ae457610ae4818a8c6124e5565b8615610b5157604051639a7bff7960e01b81526001600160a01b038a1690639a7bff7990610b1e9033908f908f908e908e90600401613938565b600060405180830381600087803b158015610b3857600080fd5b505af1158015610b4c573d6000803e3d6000fd5b505050505b6040516370a0823160e01b81523060048201526001600160a01b038316906370a0823190602401602060405180830381865afa158015610b95573d6000803e3d6000fd5b505050506040513d601f19601f82011682018060405250810190610bb99190613984565b6040516370a0823160e01b81523060048201529094506001600160a01b038216906370a0823190602401602060405180830381865afa158015610c00573d6000803e3d6000fd5b505050506040513d601f19601f82011682018060405250810190610c249190613984565b9250505060008985610c3691906139b3565b8311610c43576000610c57565b610c4d8a866139b3565b610c5790846139b3565b90506000610c658a866139b3565b8311610c72576000610c86565b610c7c8a866139b3565b610c8690846139b3565b90506000821180610c975750600081115b610cc95760405162461bcd60e51b815260206004820152600360248201526249494160e81b60448201526064016109d0565b7f00000000000000000000000000000000000000000000000000000000000000007f00000000000000000000000000000000000000000000000000000000000000008315610ddc57604051632895a2f560e11b81527f000000000000000000000000000000000000000000000000000000000000000015156004820152610ddc90612710906001600160a01b037f0000000000000000000000000000000000000000000000000000000000000000169063512b45ea90602401602060405180830381865afa158015610d9f573d6000803e3d6000fd5b505050506040513d601f19601f82011682018060405250810190610dc39190613984565b610dcd90876139ca565b610dd791906139ff565b6125d4565b8215610ead57604051632895a2f560e11b81527f000000000000000000000000000000000000000000000000000000000000000015156004820152610ead90612710906001600160a01b037f0000000000000000000000000000000000000000000000000000000000000000169063512b45ea90602401602060405180830381865afa158015610e70573d6000803e3d6000fd5b505050506040513d601f19601f82011682018060405250810190610e949190613984565b610e9e90866139ca565b610ea891906139ff565b6127c1565b6040516370a0823160e01b81523060048201526001600160a01b038316906370a0823190602401602060405180830381865afa158015610ef1573d6000803e3d6000fd5b505050506040513d601f19601f82011682018060405250810190610f159190613984565b6040516370a0823160e01b81523060048201529096506001600160a01b038216906370a0823190602401602060405180830381865afa158015610f5c573d6000803e3d6000fd5b505050506040513d601f19601f82011682018060405250810190610f809190613984565b9450610f8c88886128fd565b610f9687876128fd565b1015610fc85760405162461bcd60e51b81526020600482015260016024820152604b60f81b60448201526064016109d0565b5050610fd684848888612a49565b60408051838152602081018390529081018c9052606081018b90526001600160a01b038a169033907fd78ad95fa46c994b6551d0da85fc275fe613ce37657fb8d5e3d130840159d8229060800160405180910390a350506001601655505050505050505050565b6000805461104a90613a21565b80601f016020809104026020016040519081016040528092919081815260200182805461107690613a21565b80156110c35780601f10611098576101008083540402835291602001916110c3565b820191906000526020600020905b8154815290600101906020018083116110a657829003601f168201915b505050505081565b3360008181526003602090815260408083206001600160a01b038716808552925280832085905551919290917f8c5be1e5ebec7d5bd14f71427d1e84f3dd0314c0f7b2291e5b200ac8c7c3b925906111269086815260200190565b60405180910390a35060015b92915050565b606060008367ffffffffffffffff81111561115557611155613a5b565b60405190808252806020026020018201604052801561117e578160200160208202803683370190505b50600a54909150600090611194906001906139b3565b905060006111a285876139ca565b6111ac90836139b3565b90506000805b83831015611324576111c48784613a71565b91506000600a84815481106111db576111db613a89565b906000526020600020906003020160000154600a848154811061120057611200613a89565b90600052602060002090600302016000015461121c91906139b3565b9050600081600a868154811061123457611234613a89565b906000526020600020906003020160010154600a868154811061125957611259613a89565b90600052602060002090600302016001015461127591906139b3565b61127f91906139ff565b9050600082600a878154811061129757611297613a89565b906000526020600020906003020160020154600a87815481106112bc576112bc613a89565b9060005260206000209060030201600201546112d891906139b3565b6112e291906139ff565b90506112f08c8e8484612bdd565b88858151811061130257611302613a89565b602090810291909101015250505060010161131d8784613a71565b92506111b2565b509293505050505b949350505050565b6000807f00000000000000000000000000000000000000000000000000000000000000006001600160a01b03166346c96aac6040518163ffffffff1660e01b8152600401602060405180830381865afa158015611395573d6000803e3d6000fd5b505050506040513d601f19601f820116820180604052508101906113b99190613a9f565b600880546001600160a01b0319166001600160a01b03831617905592915050565b600e54600f5442600080806113f8600b54600c54600d549192909190565b92509250925083811461144157600061141182866139b3565b905061141d81856139ca565b6114279088613a71565b965061143381846139ca565b61143d9087613a71565b9550505b505050909192565b6001600160a01b03831660008181526003602090815260408083203380855292528220549192909190821480159061148357506000198114155b156114f957600061149485836139b3565b6001600160a01b038881166000818152600360209081526040808320948916808452948252918290208590559051848152939450919290917f8c5be1e5ebec7d5bd14f71427d1e84f3dd0314c0f7b2291e5b200ac8c7c3b925910160405180910390a3505b611504868686612ed2565b6001925050505b9392505050565b600a818154811061152257600080fd5b600091825260209091206003909102018054600182015460029092015490925083565b600080611550611bba565b905060008061155d6113da565b508451919350915042036115c557600a805461157b906002906139b3565b8154811061158b5761158b613a89565b9060005260206000209060030201604051806060016040529081600082015481526020016001820154815260200160028201548152505092505b82516000906115d490426139b3565b90506000818560200151856115e991906139b3565b6115f391906139ff565b905060008286604001518561160891906139b3565b61161291906139ff565b9050611620888a8484612bdd565b9998505050505050505050565b606061132c8484846001611138565b600060165460011461164d57600080fd5b6002601655600b54600c546040516370a0823160e01b81523060048201526000907f00000000000000000000000000000000000000000000000000000000000000006001600160a01b0316906370a0823190602401602060405180830381865afa1580156116bf573d6000803e3d6000fd5b505050506040513d601f19601f820116820180604052508101906116e39190613984565b6040516370a0823160e01b81523060048201529091506000906001600160a01b037f000000000000000000000000000000000000000000000000000000000000000016906370a0823190602401602060405180830381865afa15801561174d573d6000803e3d6000fd5b505050506040513d601f19601f820116820180604052508101906117719190613984565b9050600061177f85846139b3565b9050600061178d85846139b3565b60025490915060008190036117cf576103e86117b16117ac84866139ca565b612f92565b6117bb91906139b3565b97506117ca60006103e861307a565b611804565b611801876117dd83866139ca565b6117e791906139ff565b876117f284866139ca565b6117fc91906139ff565b61310d565b97505b6000881161183a5760405162461bcd60e51b8152602060048201526003602482015262494c4d60e81b60448201526064016109d0565b611844898961307a565b61185085858989612a49565b604080518481526020810184905233917f4c209b5fc8ad50758f13e2e1088ba56a560dff690a1c6fef26394f4c03821c4f910160405180910390a250506001601655509395945050505050565b6000806016546001146118af57600080fd5b6002601655600b54600c546040516370a0823160e01b81523060048201527f0000000000000000000000000000000000000000000000000000000000000000907f0000000000000000000000000000000000000000000000000000000000000000906000906001600160a01b038416906370a0823190602401602060405180830381865afa158015611945573d6000803e3d6000fd5b505050506040513d601f19601f820116820180604052508101906119699190613984565b6040516370a0823160e01b81523060048201529091506000906001600160a01b038416906370a0823190602401602060405180830381865afa1580156119b3573d6000803e3d6000fd5b505050506040513d601f19601f820116820180604052508101906119d79190613984565b3060009081526004602052604090205460025491925090806119f985846139ca565b611a0391906139ff565b995080611a1084846139ca565b611a1a91906139ff565b985060008a118015611a2c5750600089115b611a5e5760405162461bcd60e51b815260206004820152600360248201526224a62160e91b60448201526064016109d0565b611a683083613123565b611a73868c8c6124e5565b611a7e858c8b6124e5565b6040516370a0823160e01b81523060048201526001600160a01b038716906370a0823190602401602060405180830381865afa158015611ac2573d6000803e3d6000fd5b505050506040513d601f19601f82011682018060405250810190611ae69190613984565b6040516370a0823160e01b81523060048201529094506001600160a01b038616906370a0823190602401602060405180830381865afa158015611b2d573d6000803e3d6000fd5b505050506040513d601f19601f82011682018060405250810190611b519190613984565b9250611b5f84848a8a612a49565b604080518b8152602081018b90526001600160a01b038d169133917fdccd412f0b1252819cb1fd330b93224ca42612892bb3f4f789976e6d81936496910160405180910390a350505050505050506001601681905550915091565b611bde60405180606001604052806000815260200160008152602001600081525090565b600a8054611bee906001906139b3565b81548110611bfe57611bfe613a89565b90600052602060002090600302016040518060600160405290816000820154815260200160018201548152602001600282015481525050905090565b6001805461104a90613a21565b600080611c578585856001611138565b90506000805b8251811015611c9f57828181518110611c7857611c78613a89565b602002602001015182611c8b9190613a71565b915080611c9781613abc565b915050611c5d565b50611caa84826139ff565b9695505050505050565b6000807f00000000000000000000000000000000000000000000000000000000000000006001600160a01b031663b7f01bfc6040518163ffffffff1660e01b8152600401602060405180830381865afa158015611d15573d6000803e3d6000fd5b505050506040513d601f19601f82011682018060405250810190611d399190613a9f565b600980546001600160a01b0319166001600160a01b03831617905592915050565b6000611d67338484612ed2565b50600192915050565b601654600114611d7f57600080fd5b6002601655600b546040516370a0823160e01b81523060048201527f0000000000000000000000000000000000000000000000000000000000000000917f000000000000000000000000000000000000000000000000000000000000000091611e4c9184918691906001600160a01b038416906370a08231906024015b602060405180830381865afa158015611e19573d6000803e3d6000fd5b505050506040513d601f19601f82011682018060405250810190611e3d9190613984565b611e4791906139b3565b6124e5565b600c546040516370a0823160e01b8152306004820152611e849183918691906001600160a01b038416906370a0823190602401611dfc565b5050600160165550565b600080611e9a336131ae565b50503360009081526014602090815260408083205460159092529091205481151580611ec65750600081115b15611fb1573360008181526014602090815260408083208390556015909152808220919091555163299e7ae760e11b8152600481019190915260248101839052604481018290526001600160a01b037f0000000000000000000000000000000000000000000000000000000000000000169063533cf5ce90606401600060405180830381600087803b158015611f5b57600080fd5b505af1158015611f6f573d6000803e3d6000fd5b505060408051858152602081018590523393508392507f865ca08d59f5cb456e85cd2f7ef63664ea4f73327414e9d8152c4158b0e94645910160405180910390a35b9091565b42841015611ff55760405162461bcd60e51b815260206004820152600d60248201526c14185a5c8e8811561412549151609a1b60448201526064016109d0565b7f8b73c3c69bb8fe3d512ecc4cf759cc79239f7b179b0ffacaa9a75d522b39400f60006040516120259190613ad5565b60408051918290038220828201825260018352603160f81b6020938401528151928301939093528101919091527fc89efdaa54c0f20c7adf612882df0950f5a951637e0307cdcb4c672f298b8bc660608201524660808201523060a082015260c00160408051601f19818403018152918152815160209283012060058190556001600160a01b038a166000908152600690935290822080547f6e71edae12b1b97f4d1f60370fef10105fa2faae0126114a169c64845d6126c9918b918b918b9190876120f083613abc565b909155506040805160208101969096526001600160a01b0394851690860152929091166060840152608083015260a082015260c0810187905260e0016040516020818303038152906040528051906020012060405160200161216992919061190160f01b81526002810192909252602282015260420190565b60408051601f198184030181528282528051602091820120600080855291840180845281905260ff88169284019290925260608301869052608083018590529092509060019060a0016020604051602081039080840390855afa1580156121d4573d6000803e3d6000fd5b5050604051601f1901519150506001600160a01b0381161580159061220a5750886001600160a01b0316816001600160a01b0316145b6122565760405162461bcd60e51b815260206004820152601760248201527f506169723a20494e56414c49445f5349474e415455524500000000000000000060448201526064016109d0565b6001600160a01b038981166000818152600360209081526040808320948d16808452948252918290208b905590518a81527f8c5be1e5ebec7d5bd14f71427d1e84f3dd0314c0f7b2291e5b200ac8c7c3b925910160405180910390a3505050505050505050565b600b54600c54604051632895a2f560e11b81527f0000000000000000000000000000000000000000000000000000000000000000151560048201526000929190612710907f00000000000000000000000000000000000000000000000000000000000000006001600160a01b03169063512b45ea90602401602060405180830381865afa158015612352573d6000803e3d6000fd5b505050506040513d601f19601f820116820180604052508101906123769190613984565b61238090876139ca565b61238a91906139ff565b61239490866139b3565b94506123a285858484612bdd565b95945050505050565b6016546001146123ba57600080fd5b60026016556040516370a0823160e01b81523060048201526124de907f00000000000000000000000000000000000000000000000000000000000000006001600160a01b0316906370a0823190602401602060405180830381865afa158015612427573d6000803e3d6000fd5b505050506040513d601f19601f8201168201806040525081019061244b9190613984565b6040516370a0823160e01b81523060048201527f00000000000000000000000000000000000000000000000000000000000000006001600160a01b0316906370a0823190602401602060405180830381865afa1580156124af573d6000803e3d6000fd5b505050506040513d601f19601f820116820180604052508101906124d39190613984565b600b54600c54612a49565b6001601655565b6000836001600160a01b03163b116124fc57600080fd5b604080516001600160a01b038481166024830152604480830185905283518084039091018152606490920183526020820180516001600160e01b031663a9059cbb60e01b17905291516000928392908716916125589190613b70565b6000604051808303816000865af19150503d8060008114612595576040519150601f19603f3d011682016040523d82523d6000602084013e61259a565b606091505b50915091508180156125c45750805115806125c45750808060200190518101906125c4919061391b565b6125cd57600080fd5b5050505050565b600954600160a01b900460ff1615156000036126a157600954612622907f0000000000000000000000000000000000000000000000000000000000000000906001600160a01b0316836124e5565b60025460009061263a83670de0b6b3a76400006139ca565b61264491906139ff565b9050801561266457806010600082825461265e9190613a71565b90915550505b604080518381526000602082015233917f112c256902bf554b6ed882d2936687aaeb4225e8cd5b51303c90ca6cf43a8602910160405180910390a2505b600954600160a01b900460ff1615156001036127be5760075460405163b66503cf60e01b81526001600160a01b037f000000000000000000000000000000000000000000000000000000000000000081166004830152602482018490529091169063b66503cf906044015b600060405180830381600087803b15801561272657600080fd5b505af115801561273a573d6000803e3d6000fd5b50505050600060025482670de0b6b3a764000061275791906139ca565b61276191906139ff565b9050801561278157806010600082825461277b9190613a71565b90915550505b604080518381526000602082015233917f112c256902bf554b6ed882d2936687aaeb4225e8cd5b51303c90ca6cf43a8602910160405180910390a2505b50565b600954600160a01b900460ff16151560000361288e5760095461280f907f0000000000000000000000000000000000000000000000000000000000000000906001600160a01b0316836124e5565b60025460009061282783670de0b6b3a76400006139ca565b61283191906139ff565b9050801561285157806010600082825461284b9190613a71565b90915550505b604080518381526000602082015233917f112c256902bf554b6ed882d2936687aaeb4225e8cd5b51303c90ca6cf43a8602910160405180910390a2505b600954600160a01b900460ff1615156001036127be5760075460405163b66503cf60e01b81526001600160a01b037f000000000000000000000000000000000000000000000000000000000000000081166004830152602482018490529091169063b66503cf9060440161270c565b60007f000000000000000000000000000000000000000000000000000000000000000015612a385760007f000000000000000000000000000000000000000000000000000000000000000061295a85670de0b6b3a76400006139ca565b61296491906139ff565b905060007f000000000000000000000000000000000000000000000000000000000000000061299b85670de0b6b3a76400006139ca565b6129a591906139ff565b90506000670de0b6b3a76400006129bc83856139ca565b6129c691906139ff565b90506000670de0b6b3a76400006129dd84806139ca565b6129e791906139ff565b670de0b6b3a76400006129fa86806139ca565b612a0491906139ff565b612a0e9190613a71565b9050670de0b6b3a7640000612a2382846139ca565b612a2d91906139ff565b945050505050611132565b612a4282846139ca565b9050611132565b600d544290600090612a5b90836139b3565b9050600081118015612a6c57508315155b8015612a7757508215155b15612abe57612a8681856139ca565b600e6000828254612a979190613a71565b90915550612aa7905081846139ca565b600f6000828254612ab89190613a71565b90915550505b6000612ac8611bba565b8051909150612ad790846139b3565b9150610708821115612b8c5760408051606081018252848152600e5460208201908152600f54928201928352600a805460018101825560009190915291517fc65a7bb8d6351c1cf70c95a316cc6a92839c986682d98bc35f958f4883f9d2a8600390930292830155517fc65a7bb8d6351c1cf70c95a316cc6a92839c986682d98bc35f958f4883f9d2a982015590517fc65a7bb8d6351c1cf70c95a316cc6a92839c986682d98bc35f958f4883f9d2aa909101555b600b879055600c869055600d83905560408051888152602081018890527fcf2aa50876cdfbb541206f89af0ee78d44a2abf8d328e37fa4917f982149848a910160405180910390a150505050505050565b60007f000000000000000000000000000000000000000000000000000000000000000015612e60576000612c1184846128fd565b90507f0000000000000000000000000000000000000000000000000000000000000000612c4685670de0b6b3a76400006139ca565b612c5091906139ff565b93507f0000000000000000000000000000000000000000000000000000000000000000612c8584670de0b6b3a76400006139ca565b612c8f91906139ff565b92506000807f00000000000000000000000000000000000000000000000000000000000000006001600160a01b0316876001600160a01b031614612cd4578486612cd7565b85855b915091507f00000000000000000000000000000000000000000000000000000000000000006001600160a01b0316876001600160a01b031614612d56577f0000000000000000000000000000000000000000000000000000000000000000612d4789670de0b6b3a76400006139ca565b612d5191906139ff565b612d93565b7f0000000000000000000000000000000000000000000000000000000000000000612d8989670de0b6b3a76400006139ca565b612d9391906139ff565b97506000612dab612da4848b613a71565b858461330e565b612db590836139b3565b9050670de0b6b3a76400007f00000000000000000000000000000000000000000000000000000000000000006001600160a01b0316896001600160a01b031614612e1f577f0000000000000000000000000000000000000000000000000000000000000000612e41565b7f00000000000000000000000000000000000000000000000000000000000000005b612e4b90836139ca565b612e5591906139ff565b94505050505061132c565b6000807f00000000000000000000000000000000000000000000000000000000000000006001600160a01b0316866001600160a01b031614612ea3578385612ea6565b84845b9092509050612eb58783613a71565b612ebf82896139ca565b612ec991906139ff565b9250505061132c565b612edb836131ae565b612ee4826131ae565b6001600160a01b03831660009081526004602052604081208054839290612f0c9084906139b3565b90915550506001600160a01b03821660009081526004602052604081208054839290612f39908490613a71565b92505081905550816001600160a01b0316836001600160a01b03167fddf252ad1be2c89b69c2b068fc378daa952ba7f163c4a11628f55a4df523b3ef83604051612f8591815260200190565b60405180910390a3505050565b600081600003612fa457506000919050565b60006001612fb18461341d565b901c6001901b90506001818481612fca57612fca6139e9565b048201901c90506001818481612fe257612fe26139e9565b048201901c90506001818481612ffa57612ffa6139e9565b048201901c90506001818481613012576130126139e9565b048201901c9050600181848161302a5761302a6139e9565b048201901c90506001818481613042576130426139e9565b048201901c9050600181848161305a5761305a6139e9565b048201901c905061150b81828581613074576130746139e9565b0461310d565b613083826131ae565b80600260008282546130959190613a71565b90915550506001600160a01b038216600090815260046020526040812080548392906130c2908490613a71565b90915550506040518181526001600160a01b038316906000907fddf252ad1be2c89b69c2b068fc378daa952ba7f163c4a11628f55a4df523b3ef906020015b60405180910390a35050565b600081831061311c578161150b565b5090919050565b61312c826131ae565b806002600082825461313e91906139b3565b90915550506001600160a01b0382166000908152600460205260408120805483929061316b9084906139b3565b90915550506040518181526000906001600160a01b038416907fddf252ad1be2c89b69c2b068fc378daa952ba7f163c4a11628f55a4df523b3ef90602001613101565b6001600160a01b03811660009081526004602052604090205480156132dc576001600160a01b038216600090815260126020908152604080832080546013808552928520805460105460115494819055949095528290559361321085846139b3565b9050600061321e85846139b3565b90508115613279576000670de0b6b3a764000061323b848a6139ca565b61324591906139ff565b6001600160a01b038a16600090815260146020526040812080549293508392909190613272908490613a71565b9091555050505b80156132d2576000670de0b6b3a7640000613294838a6139ca565b61329e91906139ff565b6001600160a01b038a166000908152601560205260408120805492935083929091906132cb908490613a71565b9091555050505b5050505050505050565b6010546001600160a01b0383166000908152601260209081526040808320939093556011546013909152919020555050565b6000805b60ff8110156134145782600061332887836134b1565b90508581101561337857600061333e888761354e565b61334883896139b3565b61335a90670de0b6b3a76400006139ca565b61336491906139ff565b90506133708187613a71565b9550506133ba565b6000613384888761354e565b61338e88846139b3565b6133a090670de0b6b3a76400006139ca565b6133aa91906139ff565b90506133b681876139b3565b9550505b818511156133e35760016133ce83876139b3565b116133de5784935050505061150b565b6133ff565b60016133ef86846139b3565b116133ff5784935050505061150b565b5050808061340c90613abc565b915050613312565b50909392505050565b600080608083901c1561343257608092831c92015b604083901c1561344457604092831c92015b602083901c1561345657602092831c92015b601083901c1561346857601092831c92015b600883901c1561347a57600892831c92015b600483901c1561348c57600492831c92015b600283901c1561349e57600292831c92015b600183901c156111325760010192915050565b6000670de0b6b3a7640000828185816134ca82806139ca565b6134d491906139ff565b6134de91906139ca565b6134e891906139ff565b6134f291906139ca565b6134fc91906139ff565b670de0b6b3a764000080848161351282806139ca565b61351c91906139ff565b61352691906139ca565b61353091906139ff565b61353a90866139ca565b61354491906139ff565b61150b9190613a71565b6000670de0b6b3a7640000838161356582806139ca565b61356f91906139ff565b61357991906139ca565b61358391906139ff565b670de0b6b3a76400008061359785806139ca565b6135a191906139ff565b6135ac8660036139ca565b61353a91906139ca565b6001600160a01b03811681146127be57600080fd5b6000806000806000608086880312156135e357600080fd5b853594506020860135935060408601356135fc816135b6565b9250606086013567ffffffffffffffff8082111561361957600080fd5b818801915088601f83011261362d57600080fd5b81358181111561363c57600080fd5b89602082850101111561364e57600080fd5b9699959850939650602001949392505050565b60005b8381101561367c578181015183820152602001613664565b8381111561368b576000848401525b50505050565b60208152600082518060208401526136b0816040850160208701613661565b601f01601f19169190910160400192915050565b600080604083850312156136d757600080fd5b82356136e2816135b6565b946020939093013593505050565b6000806000806080858703121561370657600080fd5b8435613711816135b6565b966020860135965060408601359560600135945092505050565b6020808252825182820181905260009190848201906040850190845b8181101561376357835183529284019291840191600101613747565b50909695505050505050565b60006020828403121561378157600080fd5b813561150b816135b6565b6000806000606084860312156137a157600080fd5b83356137ac816135b6565b925060208401356137bc816135b6565b929592945050506040919091013590565b6000602082840312156137df57600080fd5b5035919050565b6000806000606084860312156137fb57600080fd5b8335613806816135b6565b95602085013595506040909401359392505050565b80151581146127be57600080fd5b60006020828403121561383b57600080fd5b813561150b8161381b565b600080600080600080600060e0888a03121561386157600080fd5b873561386c816135b6565b9650602088013561387c816135b6565b95506040880135945060608801359350608088013560ff811681146138a057600080fd5b9699959850939692959460a0840135945060c09093013592915050565b600080604083850312156138d057600080fd5b82356138db816135b6565b915060208301356138eb816135b6565b809150509250929050565b6000806040838503121561390957600080fd5b8235915060208301356138eb816135b6565b60006020828403121561392d57600080fd5b815161150b8161381b565b60018060a01b038616815284602082015283604082015260806060820152816080820152818360a0830137600081830160a090810191909152601f909201601f19160101949350505050565b60006020828403121561399657600080fd5b5051919050565b634e487b7160e01b600052601160045260246000fd5b6000828210156139c5576139c561399d565b500390565b60008160001904831182151516156139e4576139e461399d565b500290565b634e487b7160e01b600052601260045260246000fd5b600082613a1c57634e487b7160e01b600052601260045260246000fd5b500490565b600181811c90821680613a3557607f821691505b602082108103613a5557634e487b7160e01b600052602260045260246000fd5b50919050565b634e487b7160e01b600052604160045260246000fd5b60008219821115613a8457613a8461399d565b500190565b634e487b7160e01b600052603260045260246000fd5b600060208284031215613ab157600080fd5b815161150b816135b6565b600060018201613ace57613ace61399d565b5060010190565b600080835481600182811c915080831680613af157607f831692505b60208084108203613b1057634e487b7160e01b86526022600452602486fd5b818015613b245760018114613b3557613b62565b60ff19861689528489019650613b62565b60008a81526020902060005b86811015613b5a5781548b820152908501908301613b41565b505084890196505b509498975050505050505050565b60008251613b82818460208701613661565b919091019291505056fea2646970667358221220e08c02469b5330c9016e05e31b645edc3a5d658b00d16834cb726fc203203a4064736f6c634300080d003360e060405234801561001057600080fd5b5060405161037038038061037083398101604081905261002f91610066565b336080526001600160a01b0391821660a0521660c052610099565b80516001600160a01b038116811461006157600080fd5b919050565b6000806040838503121561007957600080fd5b6100828361004a565b91506100906020840161004a565b90509250929050565b60805160a05160c0516102ab6100c5600039600060b601526000608501526000605001526102ab6000f3fe608060405234801561001057600080fd5b506004361061002b5760003560e01c8063533cf5ce14610030575b600080fd5b61004361003e3660046101d0565b610045565b005b336001600160a01b037f0000000000000000000000000000000000000000000000000000000000000000161461007a57600080fd5b81156100ab576100ab7f000000000000000000000000000000000000000000000000000000000000000084846100e1565b80156100dc576100dc7f000000000000000000000000000000000000000000000000000000000000000084836100e1565b505050565b6000836001600160a01b03163b116100f857600080fd5b604080516001600160a01b038481166024830152604480830185905283518084039091018152606490920183526020820180516001600160e01b031663a9059cbb60e01b17905291516000928392908716916101549190610211565b6000604051808303816000865af19150503d8060008114610191576040519150601f19603f3d011682016040523d82523d6000602084013e610196565b606091505b50915091508180156101c05750805115806101c05750808060200190518101906101c0919061024c565b6101c957600080fd5b5050505050565b6000806000606084860312156101e557600080fd5b83356001600160a01b03811681146101fc57600080fd5b95602085013595506040909401359392505050565b6000825160005b818110156102325760208186018101518583015201610218565b81811115610241576000828501525b509190910192915050565b60006020828403121561025e57600080fd5b8151801515811461026e57600080fd5b939250505056fea2646970667358221220e9fa17d7c17376f3cf1f88e19e2c3299dc56e2df24706126e0ca9bce72d70c0664736f6c634300080d0033a264697066735822122059edd17b885ad325122236e315b7ee615c6bc119cc88080f7f728162590f50af64736f6c634300080d0033",
  "devdoc": {
    "kind": "dev",
    "methods": {},
    "version": 1
  },
  "userdoc": {
    "kind": "user",
    "methods": {},
    "version": 1
  },
  "storageLayout": {
    "storage": [
      {
        "astId": 21665,
        "contract": "contracts/factories/PairFactory.sol:PairFactory",
        "label": "isPaused",
        "offset": 0,
        "slot": "0",
        "type": "t_bool"
      },
      {
        "astId": 21667,
        "contract": "contracts/factories/PairFactory.sol:PairFactory",
        "label": "pauser",
        "offset": 1,
        "slot": "0",
        "type": "t_address"
      },
      {
        "astId": 21669,
        "contract": "contracts/factories/PairFactory.sol:PairFactory",
        "label": "pendingPauser",
        "offset": 0,
        "slot": "1",
        "type": "t_address"
      },
      {
        "astId": 21671,
        "contract": "contracts/factories/PairFactory.sol:PairFactory",
        "label": "stableFee",
        "offset": 0,
        "slot": "2",
        "type": "t_uint256"
      },
      {
        "astId": 21673,
        "contract": "contracts/factories/PairFactory.sol:PairFactory",
        "label": "volatileFee",
        "offset": 0,
        "slot": "3",
        "type": "t_uint256"
      },
      {
        "astId": 21678,
        "contract": "contracts/factories/PairFactory.sol:PairFactory",
        "label": "feeManager",
        "offset": 0,
        "slot": "4",
        "type": "t_address"
      },
      {
        "astId": 21680,
        "contract": "contracts/factories/PairFactory.sol:PairFactory",
        "label": "pendingFeeManager",
        "offset": 0,
        "slot": "5",
        "type": "t_address"
      },
      {
        "astId": 21682,
        "contract": "contracts/factories/PairFactory.sol:PairFactory",
        "label": "voter",
        "offset": 0,
        "slot": "6",
        "type": "t_address"
      },
      {
        "astId": 21684,
        "contract": "contracts/factories/PairFactory.sol:PairFactory",
        "label": "team",
        "offset": 0,
        "slot": "7",
        "type": "t_address"
      },
      {
        "astId": 21686,
        "contract": "contracts/factories/PairFactory.sol:PairFactory",
        "label": "pendingTank",
        "offset": 0,
        "slot": "8",
        "type": "t_address"
      },
      {
        "astId": 21688,
        "contract": "contracts/factories/PairFactory.sol:PairFactory",
        "label": "tank",
        "offset": 0,
        "slot": "9",
        "type": "t_address"
      },
      {
        "astId": 21690,
        "contract": "contracts/factories/PairFactory.sol:PairFactory",
        "label": "deployer",
        "offset": 0,
        "slot": "10",
        "type": "t_address"
      },
      {
        "astId": 21698,
        "contract": "contracts/factories/PairFactory.sol:PairFactory",
        "label": "getPair",
        "offset": 0,
        "slot": "11",
        "type": "t_mapping(t_address,t_mapping(t_address,t_mapping(t_bool,t_address)))"
      },
      {
        "astId": 21701,
        "contract": "contracts/factories/PairFactory.sol:PairFactory",
        "label": "allPairs",
        "offset": 0,
        "slot": "12",
        "type": "t_array(t_address)dyn_storage"
      },
      {
        "astId": 21705,
        "contract": "contracts/factories/PairFactory.sol:PairFactory",
        "label": "isPair",
        "offset": 0,
        "slot": "13",
        "type": "t_mapping(t_address,t_bool)"
      },
      {
        "astId": 21707,
        "contract": "contracts/factories/PairFactory.sol:PairFactory",
        "label": "_temp0",
        "offset": 0,
        "slot": "14",
        "type": "t_address"
      },
      {
        "astId": 21709,
        "contract": "contracts/factories/PairFactory.sol:PairFactory",
        "label": "_temp1",
        "offset": 0,
        "slot": "15",
        "type": "t_address"
      },
      {
        "astId": 21711,
        "contract": "contracts/factories/PairFactory.sol:PairFactory",
        "label": "_temp",
        "offset": 20,
        "slot": "15",
        "type": "t_bool"
      }
    ],
    "types": {
      "t_address": {
        "encoding": "inplace",
        "label": "address",
        "numberOfBytes": "20"
      },
      "t_array(t_address)dyn_storage": {
        "base": "t_address",
        "encoding": "dynamic_array",
        "label": "address[]",
        "numberOfBytes": "32"
      },
      "t_bool": {
        "encoding": "inplace",
        "label": "bool",
        "numberOfBytes": "1"
      },
      "t_mapping(t_address,t_bool)": {
        "encoding": "mapping",
        "key": "t_address",
        "label": "mapping(address => bool)",
        "numberOfBytes": "32",
        "value": "t_bool"
      },
      "t_mapping(t_address,t_mapping(t_address,t_mapping(t_bool,t_address)))": {
        "encoding": "mapping",
        "key": "t_address",
        "label": "mapping(address => mapping(address => mapping(bool => address)))",
        "numberOfBytes": "32",
        "value": "t_mapping(t_address,t_mapping(t_bool,t_address))"
      },
      "t_mapping(t_address,t_mapping(t_bool,t_address))": {
        "encoding": "mapping",
        "key": "t_address",
        "label": "mapping(address => mapping(bool => address))",
        "numberOfBytes": "32",
        "value": "t_mapping(t_bool,t_address)"
      },
      "t_mapping(t_bool,t_address)": {
        "encoding": "mapping",
        "key": "t_bool",
        "label": "mapping(bool => address)",
        "numberOfBytes": "32",
        "value": "t_address"
      },
      "t_uint256": {
        "encoding": "inplace",
        "label": "uint256",
        "numberOfBytes": "32"
      }
    }
  }
}