{
  "address": "0xC0695425212E400F6b6ad2a7b5F258Ef1d504216",
  "abi": [
    {
      "inputs": [],
      "stateMutability": "nonpayable",
      "type": "constructor"
    },
    {
      "anonymous": false,
      "inputs": [
        {
          "indexed": true,
          "internalType": "address",
          "name": "token0",
          "type": "address"
        },
        {
          "indexed": true,
          "internalType": "address",
          "name": "token1",
          "type": "address"
        },
        {
          "indexed": false,
          "internalType": "bool",
          "name": "stable",
          "type": "bool"
        },
        {
          "indexed": false,
          "internalType": "address",
          "name": "pair",
          "type": "address"
        },
        {
          "indexed": false,
          "internalType": "uint256",
          "name": "",
          "type": "uint256"
        }
      ],
      "name": "PairCreated",
      "type": "event"
    },
    {
      "inputs": [],
      "name": "MAX_FEE",
      "outputs": [
        {
          "internalType": "uint256",
          "name": "",
          "type": "uint256"
        }
      ],
      "stateMutability": "view",
      "type": "function"
    },
    {
      "inputs": [],
      "name": "acceptFeeManager",
      "outputs": [],
      "stateMutability": "nonpayable",
      "type": "function"
    },
    {
      "inputs": [],
      "name": "acceptPauser",
      "outputs": [],
      "stateMutability": "nonpayable",
      "type": "function"
    },
    {
      "inputs": [
        {
          "internalType": "address",
          "name": "_tank",
          "type": "address"
        }
      ],
      "name": "acceptTank",
      "outputs": [],
      "stateMutability": "nonpayable",
      "type": "function"
    },
    {
      "inputs": [
        {
          "internalType": "uint256",
          "name": "",
          "type": "uint256"
        }
      ],
      "name": "allPairs",
      "outputs": [
        {
          "internalType": "address",
          "name": "",
          "type": "address"
        }
      ],
      "stateMutability": "view",
      "type": "function"
    },
    {
      "inputs": [],
      "name": "allPairsLength",
      "outputs": [
        {
          "internalType": "uint256",
          "name": "",
          "type": "uint256"
        }
      ],
      "stateMutability": "view",
      "type": "function"
    },
    {
      "inputs": [
        {
          "internalType": "address",
          "name": "tokenA",
          "type": "address"
        },
        {
          "internalType": "address",
          "name": "tokenB",
          "type": "address"
        },
        {
          "internalType": "bool",
          "name": "stable",
          "type": "bool"
        }
      ],
      "name": "createPair",
      "outputs": [
        {
          "internalType": "address",
          "name": "pair",
          "type": "address"
        }
      ],
      "stateMutability": "nonpayable",
      "type": "function"
    },
    {
      "inputs": [],
      "name": "deployer",
      "outputs": [
        {
          "internalType": "address",
          "name": "",
          "type": "address"
        }
      ],
      "stateMutability": "view",
      "type": "function"
    },
    {
      "inputs": [],
      "name": "feeManager",
      "outputs": [
        {
          "internalType": "address",
          "name": "",
          "type": "address"
        }
      ],
      "stateMutability": "view",
      "type": "function"
    },
    {
      "inputs": [
        {
          "internalType": "bool",
          "name": "_stable",
          "type": "bool"
        }
      ],
      "name": "getFee",
      "outputs": [
        {
          "internalType": "uint256",
          "name": "",
          "type": "uint256"
        }
      ],
      "stateMutability": "view",
      "type": "function"
    },
    {
      "inputs": [],
      "name": "getInitializable",
      "outputs": [
        {
          "internalType": "address",
          "name": "",
          "type": "address"
        },
        {
          "internalType": "address",
          "name": "",
          "type": "address"
        },
        {
          "internalType": "bool",
          "name": "",
          "type": "bool"
        }
      ],
      "stateMutability": "view",
      "type": "function"
    },
    {
      "inputs": [
        {
          "internalType": "address",
          "name": "",
          "type": "address"
        },
        {
          "internalType": "address",
          "name": "",
          "type": "address"
        },
        {
          "internalType": "bool",
          "name": "",
          "type": "bool"
        }
      ],
      "name": "getPair",
      "outputs": [
        {
          "internalType": "address",
          "name": "",
          "type": "address"
        }
      ],
      "stateMutability": "view",
      "type": "function"
    },
    {
      "inputs": [],
      "name": "getVoter",
      "outputs": [
        {
          "internalType": "address",
          "name": "",
          "type": "address"
        }
      ],
      "stateMutability": "view",
      "type": "function"
    },
    {
      "inputs": [
        {
          "internalType": "address",
          "name": "",
          "type": "address"
        }
      ],
      "name": "isPair",
      "outputs": [
        {
          "internalType": "bool",
          "name": "",
          "type": "bool"
        }
      ],
      "stateMutability": "view",
      "type": "function"
    },
    {
      "inputs": [],
      "name": "isPaused",
      "outputs": [
        {
          "internalType": "bool",
          "name": "",
          "type": "bool"
        }
      ],
      "stateMutability": "view",
      "type": "function"
    },
    {
      "inputs": [],
      "name": "pairCodeHash",
      "outputs": [
        {
          "internalType": "bytes32",
          "name": "",
          "type": "bytes32"
        }
      ],
      "stateMutability": "pure",
      "type": "function"
    },
    {
      "inputs": [],
      "name": "pauser",
      "outputs": [
        {
          "internalType": "address",
          "name": "",
          "type": "address"
        }
      ],
      "stateMutability": "view",
      "type": "function"
    },
    {
      "inputs": [],
      "name": "pendingFeeManager",
      "outputs": [
        {
          "internalType": "address",
          "name": "",
          "type": "address"
        }
      ],
      "stateMutability": "view",
      "type": "function"
    },
    {
      "inputs": [],
      "name": "pendingPauser",
      "outputs": [
        {
          "internalType": "address",
          "name": "",
          "type": "address"
        }
      ],
      "stateMutability": "view",
      "type": "function"
    },
    {
      "inputs": [
        {
          "internalType": "bool",
          "name": "_stable",
          "type": "bool"
        },
        {
          "internalType": "uint256",
          "name": "_fee",
          "type": "uint256"
        }
      ],
      "name": "setFee",
      "outputs": [],
      "stateMutability": "nonpayable",
      "type": "function"
    },
    {
      "inputs": [
        {
          "internalType": "address",
          "name": "_feeManager",
          "type": "address"
        }
      ],
      "name": "setFeeManager",
      "outputs": [],
      "stateMutability": "nonpayable",
      "type": "function"
    },
    {
      "inputs": [
        {
          "internalType": "bool",
          "name": "_state",
          "type": "bool"
        }
      ],
      "name": "setPause",
      "outputs": [],
      "stateMutability": "nonpayable",
      "type": "function"
    },
    {
      "inputs": [
        {
          "internalType": "address",
          "name": "_pauser",
          "type": "address"
        }
      ],
      "name": "setPauser",
      "outputs": [],
      "stateMutability": "nonpayable",
      "type": "function"
    },
    {
      "inputs": [
        {
          "internalType": "address",
          "name": "_tank",
          "type": "address"
        }
      ],
      "name": "setTank",
      "outputs": [],
      "stateMutability": "nonpayable",
      "type": "function"
    },
    {
      "inputs": [
        {
          "internalType": "address",
          "name": "_team",
          "type": "address"
        }
      ],
      "name": "setTeam",
      "outputs": [],
      "stateMutability": "nonpayable",
      "type": "function"
    },
    {
      "inputs": [
        {
          "internalType": "address",
          "name": "_voter",
          "type": "address"
        }
      ],
      "name": "setVoter",
      "outputs": [],
      "stateMutability": "nonpayable",
      "type": "function"
    },
    {
      "inputs": [],
      "name": "stableFee",
      "outputs": [
        {
          "internalType": "uint256",
          "name": "",
          "type": "uint256"
        }
      ],
      "stateMutability": "view",
      "type": "function"
    },
    {
      "inputs": [],
      "name": "tank",
      "outputs": [
        {
          "internalType": "address",
          "name": "",
          "type": "address"
        }
      ],
      "stateMutability": "view",
      "type": "function"
    },
    {
      "inputs": [],
      "name": "team",
      "outputs": [
        {
          "internalType": "address",
          "name": "",
          "type": "address"
        }
      ],
      "stateMutability": "view",
      "type": "function"
    },
    {
      "inputs": [],
      "name": "volatileFee",
      "outputs": [
        {
          "internalType": "uint256",
          "name": "",
          "type": "uint256"
        }
      ],
      "stateMutability": "view",
      "type": "function"
    },
    {
      "inputs": [],
      "name": "voter",
      "outputs": [
        {
          "internalType": "address",
          "name": "",
          "type": "address"
        }
      ],
      "stateMutability": "view",
      "type": "function"
    }
  ],
  "transactionHash": "0xbb2914b153e5348a67af8775725ce5ae6c5631a26ef0dca726a3b8ba7317341c",
  "args": [],
  "numDeployments": 1,
  "solcInputHash": "e7364677e32bfe551c885b32732e3555",
  "bytecode": "0x608060405234801561001057600080fd5b50600080546001600160a81b03191633610100810260ff1916919091178255600480546001600160a01b031990811683179091556003600281905560199055600980549091169091179055615aa190819061006b90396000f3fe60806040523480156200001157600080fd5b50600436106200020d5760003560e01c806385f2aef21162000125578063bc063e1a11620000af578063e1f76b44116200007a578063e1f76b441462000473578063e5e31b13146200048a578063eb13c4cf14620004b0578063f94c53c714620004e957600080fd5b8063bc063e1a146200042b578063bedb86fb1462000434578063d0fb0203146200044b578063d5f39488146200045f57600080fd5b80639fd0506d11620000f05780639fd0506d14620003c8578063ad8c3cd214620003e1578063b187bd2614620003f8578063b7f01bfc146200041757600080fd5b806385f2aef214620003825780638a4fa0d214620003965780639a7165e414620003aa5780639aab924814620003be57600080fd5b8063472d35b911620001a7578063574f2ba31162000172578063574f2ba3146200030e5780636801cc3014620003175780636ccbf1cb146200035457806382dfdce4146200036b57600080fd5b8063472d35b914620002bf5780634bc2a65714620002d65780635084ed0314620002ed578063512b45ea14620002f757600080fd5b80632b37f53c11620001e85780632b37f53c14620002695780632d88af4a146200027b57806340bbd775146200029257806346c96aac14620002ab57600080fd5b8063095cf5c61462000212578063167a6f90146200022b5780631e3dd18b1462000235575b600080fd5b620002296200022336600462000d3e565b620004f3565b005b620002296200058c565b6200024c6200024636600462000d63565b620005cf565b6040516001600160a01b0390911681526020015b60405180910390f35b6006546001600160a01b03166200024c565b620002296200028c36600462000d3e565b620005fa565b6200029c60025481565b60405190815260200162000260565b6006546200024c906001600160a01b031681565b62000229620002d036600462000d3e565b62000639565b62000229620002e736600462000d3e565b620006a9565b6200029c60035481565b6200029c6200030836600462000d8e565b6200073b565b600b546200029c565b6200024c6200032836600462000dac565b600a6020908152600093845260408085208252928452828420905282529020546001600160a01b031681565b620002296200036536600462000d3e565b62000756565b6200024c6200037c36600462000dac565b620007c7565b6007546200024c906001600160a01b031681565b6005546200024c906001600160a01b031681565b6001546200024c906001600160a01b031681565b6200029c62000ab2565b6000546200024c9061010090046001600160a01b031681565b62000229620003f236600462000d3e565b62000ae6565b600054620004069060ff1681565b604051901515815260200162000260565b6008546200024c906001600160a01b031681565b6200029c603281565b620002296200044536600462000d8e565b62000b78565b6004546200024c906001600160a01b031681565b6009546200024c906001600160a01b031681565b620002296200048436600462000df6565b62000ba8565b620004066200049b36600462000d3e565b600c6020526000908152604090205460ff1681565b600d54600e54604080516001600160a01b0393841681529282166020840152600160a01b90910460ff1615159082015260600162000260565b6200022962000c93565b6009546001600160a01b031633146200050b57600080fd5b6007546001600160a01b0316156200056a5760405162461bcd60e51b815260206004820152601e60248201527f546865207465616d2068617320616c7265616479206265656e207365742e000060448201526064015b60405180910390fd5b600780546001600160a01b0319166001600160a01b0392909216919091179055565b6001546001600160a01b03163314620005a457600080fd5b600154600080546001600160a01b0390921661010002610100600160a81b0319909216919091179055565b600b8181548110620005e057600080fd5b6000918252602090912001546001600160a01b0316905081565b60005461010090046001600160a01b031633146200061757600080fd5b600180546001600160a01b0319166001600160a01b0392909216919091179055565b6004546001600160a01b03163314620006875760405162461bcd60e51b815260206004820152600f60248201526e3737ba103332b29036b0b730b3b2b960891b604482015260640162000561565b600580546001600160a01b0319166001600160a01b0392909216919091179055565b600754600160a01b900460ff1615620007055760405162461bcd60e51b815260206004820152601f60248201527f54686520766f7465722068617320616c7265616479206265656e207365742e00604482015260640162000561565b600680546001600160a01b039092166001600160a01b03199092169190911790556007805460ff60a01b1916600160a01b179055565b6000816200074c5760035462000750565b6002545b92915050565b6007546001600160a01b03163314620007a55760405162461bcd60e51b815260206004820152601060248201526f6e6f742070656e64696e67207465616d60801b604482015260640162000561565b600880546001600160a01b0319166001600160a01b0392909216919091179055565b6000826001600160a01b0316846001600160a01b031603620008115760405162461bcd60e51b8152602060048201526002602482015261494160f01b604482015260640162000561565b600080846001600160a01b0316866001600160a01b0316106200083657848662000839565b85855b90925090506001600160a01b0382166200087b5760405162461bcd60e51b81526020600482015260026024820152615a4160f01b604482015260640162000561565b6001600160a01b038281166000908152600a602090815260408083208585168452825280832088151584529091529020541615620008e15760405162461bcd60e51b8152602060048201526002602482015261504560f01b604482015260640162000561565b6040516bffffffffffffffffffffffff19606084811b8216602084015283901b16603482015284151560f81b604882015260009060490160408051601f19818403018152908290528051602090910120600e80546001600160a01b038087166001600160a01b03198b1515600160a01b0281166001600160a81b03199094169390931717909255600d80549288169290911691909117905591508190620009889062000d13565b8190604051809103906000f5905080158015620009a9573d6000803e3d6000fd5b506001600160a01b038481166000818152600a602081815260408084208987168086529083528185208d15158087529084528286208054988a166001600160a01b0319998a168117909155828752948452828620878752845282862081875284528286208054891686179055600b8054600181810183557f0175b7a638427703f0dbe7bb9bbf987a2551717b34e79f33b5b1008d1fa01db99091018054909a168717909955858752600c855295839020805460ff1916909817909755935481519687529186019290925290840152929650907fc4805696c66d7cf352fc1d6bb633ad5ee82f6cb577c453024b6e0eb8306c6fc99060600160405180910390a35050509392505050565b60006040518060200162000ac69062000d13565b6020820181038252601f19601f8201166040525080519060200120905090565b600754600160a81b900460ff161562000b425760405162461bcd60e51b815260206004820152601e60248201527f5468652074616e6b2068617320616c7265616479206265656e207365742e0000604482015260640162000561565b600880546001600160a01b039092166001600160a01b03199092169190911790556007805460ff60a81b1916600160a81b179055565b60005461010090046001600160a01b0316331462000b9557600080fd5b6000805460ff1916911515919091179055565b6004546001600160a01b0316331462000bf65760405162461bcd60e51b815260206004820152600f60248201526e3737ba103332b29036b0b730b3b2b960891b604482015260640162000561565b603281111562000c385760405162461bcd60e51b815260206004820152600c60248201526b0cccaca40e8dede40d0d2ced60a31b604482015260640162000561565b8060000362000c805760405162461bcd60e51b8152602060048201526013602482015272666565206d757374206265206e6f6e7a65726f60681b604482015260640162000561565b811562000c8d5760025550565b60035550565b6005546001600160a01b0316331462000cef5760405162461bcd60e51b815260206004820152601760248201527f6e6f742070656e64696e6720666565206d616e61676572000000000000000000604482015260640162000561565b600554600480546001600160a01b0319166001600160a01b03909216919091179055565b614c488062000e2483390190565b80356001600160a01b038116811462000d3957600080fd5b919050565b60006020828403121562000d5157600080fd5b62000d5c8262000d21565b9392505050565b60006020828403121562000d7657600080fd5b5035919050565b8035801515811462000d3957600080fd5b60006020828403121562000da157600080fd5b62000d5c8262000d7d565b60008060006060848603121562000dc257600080fd5b62000dcd8462000d21565b925062000ddd6020850162000d21565b915062000ded6040850162000d7d565b90509250925092565b6000806040838503121562000e0a57600080fd5b62000e158362000d7d565b94602093909301359350505056fe61018060405260006002556000600e556000600f5560016014553480156200002657600080fd5b503361010081905260408051632dfc06ff60e21b8152905163b7f01bfc916004808201926020929091908290030181865afa1580156200006a573d6000803e3d6000fd5b505050506040513d601f19601f8201168201806040525081019062000090919062000830565b6001600160a01b0316610120816001600160a01b0316815250506000806000336001600160a01b031663eb13c4cf6040518163ffffffff1660e01b8152600401606060405180830381865afa158015620000ee573d6000803e3d6000fd5b505050506040513d601f19601f8201168201806040525081019062000114919062000855565b8015156080526001600160a01b0380831660c052831660a05260405192955090935091508390839062000147906200075f565b6001600160a01b03928316815291166020820152604001604051809103906000f0801580156200017b573d6000803e3d6000fd5b506001600160a01b031660e0528015620003ad57826001600160a01b03166395d89b416040518163ffffffff1660e01b8152600401600060405180830381865afa158015620001ce573d6000803e3d6000fd5b505050506040513d6000823e601f3d908101601f19168201604052620001f89190810190620008f0565b826001600160a01b03166395d89b416040518163ffffffff1660e01b8152600401600060405180830381865afa15801562000237573d6000803e3d6000fd5b505050506040513d6000823e601f3d908101601f19168201604052620002619190810190620008f0565b60405160200162000274929190620009a8565b604051602081830303815290604052600090805190602001906200029a9291906200076d565b50826001600160a01b03166395d89b416040518163ffffffff1660e01b8152600401600060405180830381865afa158015620002da573d6000803e3d6000fd5b505050506040513d6000823e601f3d908101601f19168201604052620003049190810190620008f0565b826001600160a01b03166395d89b416040518163ffffffff1660e01b8152600401600060405180830381865afa15801562000343573d6000803e3d6000fd5b505050506040513d6000823e601f3d908101601f191682016040526200036d9190810190620008f0565b6040516020016200038092919062000a03565b60405160208183030381529060405260019080519060200190620003a69291906200076d565b50620005c6565b826001600160a01b03166395d89b416040518163ffffffff1660e01b8152600401600060405180830381865afa158015620003ec573d6000803e3d6000fd5b505050506040513d6000823e601f3d908101601f19168201604052620004169190810190620008f0565b826001600160a01b03166395d89b416040518163ffffffff1660e01b8152600401600060405180830381865afa15801562000455573d6000803e3d6000fd5b505050506040513d6000823e601f3d908101601f191682016040526200047f9190810190620008f0565b6040516020016200049292919062000a54565b60405160208183030381529060405260009080519060200190620004b89291906200076d565b50826001600160a01b03166395d89b416040518163ffffffff1660e01b8152600401600060405180830381865afa158015620004f8573d6000803e3d6000fd5b505050506040513d6000823e601f3d908101601f19168201604052620005229190810190620008f0565b826001600160a01b03166395d89b416040518163ffffffff1660e01b8152600401600060405180830381865afa15801562000561573d6000803e3d6000fd5b505050506040513d6000823e601f3d908101601f191682016040526200058b9190810190620008f0565b6040516020016200059e92919062000ab1565b60405160208183030381529060405260019080519060200190620005c49291906200076d565b505b826001600160a01b031663313ce5676040518163ffffffff1660e01b8152600401602060405180830381865afa15801562000605573d6000803e3d6000fd5b505050506040513d601f19601f820116820180604052508101906200062b919062000ad3565b6200063890600a62000c0d565b6101408181525050816001600160a01b031663313ce5676040518163ffffffff1660e01b8152600401602060405180830381865afa1580156200067f573d6000803e3d6000fd5b505050506040513d601f19601f82011682018060405250810190620006a5919062000ad3565b620006b290600a62000c0d565b6101605250506040805160608101825242815260006020820181815292820181815260088054600181018255925291517ff3f7a9fe364faab93b216da50a3214154f22a0a2b415b23a84c8169e8b636ee360039092029182015591517ff3f7a9fe364faab93b216da50a3214154f22a0a2b415b23a84c8169e8b636ee4830155517ff3f7a9fe364faab93b216da50a3214154f22a0a2b415b23a84c8169e8b636ee5909101555062000c5a565b61037080620048d883390190565b8280546200077b9062000c1e565b90600052602060002090601f0160209004810192826200079f5760008555620007ea565b82601f10620007ba57805160ff1916838001178555620007ea565b82800160010185558215620007ea579182015b82811115620007ea578251825591602001919060010190620007cd565b50620007f8929150620007fc565b5090565b5b80821115620007f85760008155600101620007fd565b80516001600160a01b03811681146200082b57600080fd5b919050565b6000602082840312156200084357600080fd5b6200084e8262000813565b9392505050565b6000806000606084860312156200086b57600080fd5b620008768462000813565b9250620008866020850162000813565b9150604084015180151581146200089c57600080fd5b809150509250925092565b634e487b7160e01b600052604160045260246000fd5b60005b83811015620008da578181015183820152602001620008c0565b83811115620008ea576000848401525b50505050565b6000602082840312156200090357600080fd5b81516001600160401b03808211156200091b57600080fd5b818401915084601f8301126200093057600080fd5b815181811115620009455762000945620008a7565b604051601f8201601f19908116603f01168101908382118183101715620009705762000970620008a7565b816040528281528760208487010111156200098a57600080fd5b6200099d836020830160208801620008bd565b979650505050505050565b6e029ba30b13632ab189020a6a690169608d1b815260008351620009d481600f850160208801620008bd565b602f60f81b600f918401918201528351620009f7816010840160208801620008bd565b01601001949350505050565b6473414d4d2d60d81b81526000835162000a25816005850160208801620008bd565b602f60f81b600591840191820152835162000a48816006840160208801620008bd565b01600601949350505050565b7002b37b630ba34b632ab189020a6a690169607d1b81526000835162000a82816011850160208801620008bd565b602f60f81b601191840191820152835162000aa5816012840160208801620008bd565b01601201949350505050565b6476414d4d2d60d81b81526000835162000a25816005850160208801620008bd565b60006020828403121562000ae657600080fd5b815160ff811681146200084e57600080fd5b634e487b7160e01b600052601160045260246000fd5b600181815b8085111562000b4f57816000190482111562000b335762000b3362000af8565b8085161562000b4157918102915b93841c939080029062000b13565b509250929050565b60008262000b685750600162000c07565b8162000b775750600062000c07565b816001811462000b90576002811462000b9b5762000bbb565b600191505062000c07565b60ff84111562000baf5762000baf62000af8565b50506001821b62000c07565b5060208310610133831016604e8410600b841016171562000be0575081810a62000c07565b62000bec838362000b0e565b806000190482111562000c035762000c0362000af8565b0290505b92915050565b60006200084e60ff84168362000b57565b600181811c9082168062000c3357607f821691505b60208210810362000c5457634e487b7160e01b600052602260045260246000fd5b50919050565b60805160a05160c05160e05161010051610120516101405161016051613ad662000e02600039600081816104a80152818161286501528181612b4f01528181612c110152612d1c0152600081816104850152818161282401528181612b1001528181612c530152612cf60152600081816107a70152818161247501526126ad0152600081816108a901528181610cf801528181610dc901526121570152600081816106900152611d6b015260008181610532015281816106e501528181610805015281816109e401528181610c8c01528181611600015281816117eb01528181611c12015281816122b40152818161268c0152818161277001526127b90152600081816103400152818161050a015281816106c0015281816109c301528181610c6b0152818161156a015281816117c901528181611bf00152818161222c01528181612454015281816125380152818161258101528181612b9101528181612bd801528181612cbd0152612d6001526000818161040e015281816104da01528181610cc001528181610d9101528181612126015281816127fc0152612adc0152613ad66000f3fe608060405234801561001057600080fd5b50600436106102bb5760003560e01c80637ecebe0011610182578063b7f01bfc116100e9578063d21220a7116100a2578063dd62ed3e1161007c578063dd62ed3e14610842578063ebeb31db1461086d578063f140a35a14610875578063fff6cae91461088857600080fd5b8063d21220a714610800578063d294f09314610827578063d505accf1461082f57600080fd5b8063b7f01bfc146107a2578063bc25cf77146107c9578063bda39cad146107dc578063bf944dbc146107e5578063c245febc146107ee578063c5700a02146107f757600080fd5b80639d63848a1161013b5780639d63848a146106b25780639e8cc04b146107105780639f767c8814610723578063a1ac4d1314610743578063a9059cbb14610763578063b22d8fe01461077657600080fd5b80637ecebe00146105fd57806389afcb441461061d5780638a7b8cf21461064557806391f36d651461066f57806395d89b41146106835780639af1d35a1461068b57600080fd5b8063252c09d7116102265780634d5a9f8a116101df5780634d5a9f8a1461057b578063517b3f821461059b5780635881c475146105ae5780635a76f25e146105c15780636a627842146105ca57806370a08231146105dd57600080fd5b8063252c09d714610443578063313ce5671461045657806332c0defd14610470578063392f37e914610479578063443cb4bc1461055f57806345a1de791461056857600080fd5b806318160ddd1161027857806318160ddd1461039a57806319999566146103b15780631df8c717146103e1578063205aabf1146103e957806322be3de11461040957806323b872dd1461043057600080fd5b8063022c0d9f146102c057806306fdde03146102d55780630902f1ac146102f3578063095ea7b3146103185780630dfe16811461033b57806313345fe11461037a575b600080fd5b6102d36102ce366004613517565b610890565b005b6102dd610fdd565b6040516102ea91906135db565b60405180910390f35b600954600a54600b545b604080519384526020840192909252908201526060016102ea565b61032b61032636600461360e565b61106b565b60405190151581526020016102ea565b6103627f000000000000000000000000000000000000000000000000000000000000000081565b6040516001600160a01b0390911681526020016102ea565b61038d610388366004613638565b6110d8565b6040516102ea9190613671565b6103a360025481565b6040519081526020016102ea565b6102d36103bf3660046136b5565b600780546001600160a01b0319166001600160a01b0392909216919091179055565b6102fd6112d4565b6103a36103f73660046136b5565b60116020526000908152604090205481565b61032b7f000000000000000000000000000000000000000000000000000000000000000081565b61032b61043e3660046136d0565b611343565b6102fd61045136600461370c565b61140c565b61045e601281565b60405160ff90911681526020016102ea565b6103a3600e5481565b600954600a54604080517f000000000000000000000000000000000000000000000000000000000000000081527f000000000000000000000000000000000000000000000000000000000000000060208201529081019290925260608201527f0000000000000000000000000000000000000000000000000000000000000000151560808201526001600160a01b037f0000000000000000000000000000000000000000000000000000000000000000811660a08301527f00000000000000000000000000000000000000000000000000000000000000001660c082015260e0016102ea565b6103a360095481565b600754610362906001600160a01b031681565b6103a36105893660046136b5565b60126020526000908152604090205481565b6103a36105a936600461360e565b61143f565b61038d6105bc366004613725565b611527565b6103a3600a5481565b6103a36105d83660046136b5565b611536565b6103a36105eb3660046136b5565b60046020526000908152604090205481565b6103a361060b3660046136b5565b60066020526000908152604090205481565b61063061062b3660046136b5565b611797565b604080519283526020830191909152016102ea565b61064d611ab4565b60408051825181526020808401519082015291810151908201526060016102ea565b60075461032b90600160a01b900460ff1681565b6102dd611b34565b6103627f000000000000000000000000000000000000000000000000000000000000000081565b604080516001600160a01b037f0000000000000000000000000000000000000000000000000000000000000000811682527f0000000000000000000000000000000000000000000000000000000000000000166020820152016102ea565b6103a361071e366004613725565b611b41565b6103a36107313660046136b5565b60106020526000908152604090205481565b6103a36107513660046136b5565b60136020526000908152604090205481565b61032b61077136600461360e565b611bae565b6102d3610784366004613766565b60078054911515600160a01b0260ff60a01b19909216919091179055565b6103627f000000000000000000000000000000000000000000000000000000000000000081565b6102d36107d73660046136b5565b611bc4565b6103a3600f5481565b6103a3600c5481565b6103a3600d5481565b6103a3600b5481565b6103627f000000000000000000000000000000000000000000000000000000000000000081565b610630611ce2565b6102d361083d366004613783565b611e09565b6103a36108503660046137f6565b600360209081526000928352604080842090915290825290205481565b6008546103a3565b6103a3610883366004613829565b612111565b6102d36121ff565b60145460011461089f57600080fd5b60026014819055507f00000000000000000000000000000000000000000000000000000000000000006001600160a01b031663b187bd266040518163ffffffff1660e01b8152600401602060405180830381865afa158015610905573d6000803e3d6000fd5b505050506040513d601f19601f82011682018060405250810190610929919061384c565b1561093357600080fd5b60008511806109425750600084115b6109795760405162461bcd60e51b8152602060048201526003602482015262494f4160e81b60448201526064015b60405180910390fd5b600954600a54818710801561098d57508086105b6109be5760405162461bcd60e51b8152602060048201526002602482015261125360f21b6044820152606401610970565b6000807f00000000000000000000000000000000000000000000000000000000000000007f00000000000000000000000000000000000000000000000000000000000000006001600160a01b0389811690831614801590610a315750806001600160a01b0316896001600160a01b031614155b610a625760405162461bcd60e51b8152602060048201526002602482015261125560f21b6044820152606401610970565b8a15610a7357610a73828a8d612339565b8915610a8457610a84818a8c612339565b8615610af157604051639a7bff7960e01b81526001600160a01b038a1690639a7bff7990610abe9033908f908f908e908e90600401613869565b600060405180830381600087803b158015610ad857600080fd5b505af1158015610aec573d6000803e3d6000fd5b505050505b6040516370a0823160e01b81523060048201526001600160a01b038316906370a0823190602401602060405180830381865afa158015610b35573d6000803e3d6000fd5b505050506040513d601f19601f82011682018060405250810190610b5991906138b5565b6040516370a0823160e01b81523060048201529094506001600160a01b038216906370a0823190602401602060405180830381865afa158015610ba0573d6000803e3d6000fd5b505050506040513d601f19601f82011682018060405250810190610bc491906138b5565b9250505060008985610bd691906138e4565b8311610be3576000610bf7565b610bed8a866138e4565b610bf790846138e4565b90506000610c058a866138e4565b8311610c12576000610c26565b610c1c8a866138e4565b610c2690846138e4565b90506000821180610c375750600081115b610c695760405162461bcd60e51b815260206004820152600360248201526249494160e81b6044820152606401610970565b7f00000000000000000000000000000000000000000000000000000000000000007f00000000000000000000000000000000000000000000000000000000000000008315610d7c57604051632895a2f560e11b81527f000000000000000000000000000000000000000000000000000000000000000015156004820152610d7c90612710906001600160a01b037f0000000000000000000000000000000000000000000000000000000000000000169063512b45ea90602401602060405180830381865afa158015610d3f573d6000803e3d6000fd5b505050506040513d601f19601f82011682018060405250810190610d6391906138b5565b610d6d90876138fb565b610d779190613930565b612439565b8215610e4d57604051632895a2f560e11b81527f000000000000000000000000000000000000000000000000000000000000000015156004820152610e4d90612710906001600160a01b037f0000000000000000000000000000000000000000000000000000000000000000169063512b45ea90602401602060405180830381865afa158015610e10573d6000803e3d6000fd5b505050506040513d601f19601f82011682018060405250810190610e3491906138b5565b610e3e90866138fb565b610e489190613930565b612671565b6040516370a0823160e01b81523060048201526001600160a01b038316906370a0823190602401602060405180830381865afa158015610e91573d6000803e3d6000fd5b505050506040513d601f19601f82011682018060405250810190610eb591906138b5565b6040516370a0823160e01b81523060048201529096506001600160a01b038216906370a0823190602401602060405180830381865afa158015610efc573d6000803e3d6000fd5b505050506040513d601f19601f82011682018060405250810190610f2091906138b5565b9450610f2c88886127f8565b610f3687876127f8565b1015610f685760405162461bcd60e51b81526020600482015260016024820152604b60f81b6044820152606401610970565b5050610f7684848888612944565b60408051838152602081018390529081018c9052606081018b90526001600160a01b038a169033907fd78ad95fa46c994b6551d0da85fc275fe613ce37657fb8d5e3d130840159d8229060800160405180910390a350506001601455505050505050505050565b60008054610fea90613952565b80601f016020809104026020016040519081016040528092919081815260200182805461101690613952565b80156110635780601f1061103857610100808354040283529160200191611063565b820191906000526020600020905b81548152906001019060200180831161104657829003601f168201915b505050505081565b3360008181526003602090815260408083206001600160a01b038716808552925280832085905551919290917f8c5be1e5ebec7d5bd14f71427d1e84f3dd0314c0f7b2291e5b200ac8c7c3b925906110c69086815260200190565b60405180910390a35060015b92915050565b606060008367ffffffffffffffff8111156110f5576110f561398c565b60405190808252806020026020018201604052801561111e578160200160208202803683370190505b50600854909150600090611134906001906138e4565b9050600061114285876138fb565b61114c90836138e4565b90506000805b838310156112c45761116487846139a2565b915060006008848154811061117b5761117b6139ba565b906000526020600020906003020160000154600884815481106111a0576111a06139ba565b9060005260206000209060030201600001546111bc91906138e4565b9050600081600886815481106111d4576111d46139ba565b906000526020600020906003020160010154600886815481106111f9576111f96139ba565b90600052602060002090600302016001015461121591906138e4565b61121f9190613930565b905060008260088781548110611237576112376139ba565b9060005260206000209060030201600201546008878154811061125c5761125c6139ba565b90600052602060002090600302016002015461127891906138e4565b6112829190613930565b90506112908c8e8484612ad8565b8885815181106112a2576112a26139ba565b60209081029190910101525050506001016112bd87846139a2565b9250611152565b509293505050505b949350505050565b600c54600d5442600080806112f2600954600a54600b549192909190565b92509250925083811461133b57600061130b82866138e4565b905061131781856138fb565b61132190886139a2565b965061132d81846138fb565b61133790876139a2565b9550505b505050909192565b6001600160a01b03831660008181526003602090815260408083203380855292528220549192909190821480159061137d57506000198114155b156113f357600061138e85836138e4565b6001600160a01b038881166000818152600360209081526040808320948916808452948252918290208590559051848152939450919290917f8c5be1e5ebec7d5bd14f71427d1e84f3dd0314c0f7b2291e5b200ac8c7c3b925910160405180910390a3505b6113fe868686612dcd565b6001925050505b9392505050565b6008818154811061141c57600080fd5b600091825260209091206003909102018054600182015460029092015490925083565b60008061144a611ab4565b90506000806114576112d4565b508451919350915042036114bf5760088054611475906002906138e4565b81548110611485576114856139ba565b9060005260206000209060030201604051806060016040529081600082015481526020016001820154815260200160028201548152505092505b82516000906114ce90426138e4565b90506000818560200151856114e391906138e4565b6114ed9190613930565b905060008286604001518561150291906138e4565b61150c9190613930565b905061151a888a8484612ad8565b9998505050505050505050565b60606112cc84848460016110d8565b600060145460011461154757600080fd5b6002601455600954600a546040516370a0823160e01b81523060048201526000907f00000000000000000000000000000000000000000000000000000000000000006001600160a01b0316906370a0823190602401602060405180830381865afa1580156115b9573d6000803e3d6000fd5b505050506040513d601f19601f820116820180604052508101906115dd91906138b5565b6040516370a0823160e01b81523060048201529091506000906001600160a01b037f000000000000000000000000000000000000000000000000000000000000000016906370a0823190602401602060405180830381865afa158015611647573d6000803e3d6000fd5b505050506040513d601f19601f8201168201806040525081019061166b91906138b5565b9050600061167985846138e4565b9050600061168785846138e4565b60025490915060008190036116c9576103e86116ab6116a684866138fb565b612e8d565b6116b591906138e4565b97506116c460006103e8612f75565b6116fe565b6116fb876116d783866138fb565b6116e19190613930565b876116ec84866138fb565b6116f69190613930565b613008565b97505b600088116117345760405162461bcd60e51b8152602060048201526003602482015262494c4d60e81b6044820152606401610970565b61173e8989612f75565b61174a85858989612944565b604080518481526020810184905233917f4c209b5fc8ad50758f13e2e1088ba56a560dff690a1c6fef26394f4c03821c4f910160405180910390a250506001601455509395945050505050565b6000806014546001146117a957600080fd5b6002601455600954600a546040516370a0823160e01b81523060048201527f0000000000000000000000000000000000000000000000000000000000000000907f0000000000000000000000000000000000000000000000000000000000000000906000906001600160a01b038416906370a0823190602401602060405180830381865afa15801561183f573d6000803e3d6000fd5b505050506040513d601f19601f8201168201806040525081019061186391906138b5565b6040516370a0823160e01b81523060048201529091506000906001600160a01b038416906370a0823190602401602060405180830381865afa1580156118ad573d6000803e3d6000fd5b505050506040513d601f19601f820116820180604052508101906118d191906138b5565b3060009081526004602052604090205460025491925090806118f385846138fb565b6118fd9190613930565b99508061190a84846138fb565b6119149190613930565b985060008a1180156119265750600089115b6119585760405162461bcd60e51b815260206004820152600360248201526224a62160e91b6044820152606401610970565b611962308361301e565b61196d868c8c612339565b611978858c8b612339565b6040516370a0823160e01b81523060048201526001600160a01b038716906370a0823190602401602060405180830381865afa1580156119bc573d6000803e3d6000fd5b505050506040513d601f19601f820116820180604052508101906119e091906138b5565b6040516370a0823160e01b81523060048201529094506001600160a01b038616906370a0823190602401602060405180830381865afa158015611a27573d6000803e3d6000fd5b505050506040513d601f19601f82011682018060405250810190611a4b91906138b5565b9250611a5984848a8a612944565b604080518b8152602081018b90526001600160a01b038d169133917fdccd412f0b1252819cb1fd330b93224ca42612892bb3f4f789976e6d81936496910160405180910390a350505050505050506001601481905550915091565b611ad860405180606001604052806000815260200160008152602001600081525090565b60088054611ae8906001906138e4565b81548110611af857611af86139ba565b90600052602060002090600302016040518060600160405290816000820154815260200160018201548152602001600282015481525050905090565b60018054610fea90613952565b600080611b5185858560016110d8565b90506000805b8251811015611b9957828181518110611b7257611b726139ba565b602002602001015182611b8591906139a2565b915080611b91816139d0565b915050611b57565b50611ba48482613930565b9695505050505050565b6000611bbb338484612dcd565b50600192915050565b601454600114611bd357600080fd5b60026014556009546040516370a0823160e01b81523060048201527f0000000000000000000000000000000000000000000000000000000000000000917f000000000000000000000000000000000000000000000000000000000000000091611ca09184918691906001600160a01b038416906370a08231906024015b602060405180830381865afa158015611c6d573d6000803e3d6000fd5b505050506040513d601f19601f82011682018060405250810190611c9191906138b5565b611c9b91906138e4565b612339565b600a546040516370a0823160e01b8152306004820152611cd89183918691906001600160a01b038416906370a0823190602401611c50565b5050600160145550565b600080611cee336130a9565b50503360009081526012602090815260408083205460139092529091205481151580611d1a5750600081115b15611e05573360008181526012602090815260408083208390556013909152808220919091555163299e7ae760e11b8152600481019190915260248101839052604481018290526001600160a01b037f0000000000000000000000000000000000000000000000000000000000000000169063533cf5ce90606401600060405180830381600087803b158015611daf57600080fd5b505af1158015611dc3573d6000803e3d6000fd5b505060408051858152602081018590523393508392507f865ca08d59f5cb456e85cd2f7ef63664ea4f73327414e9d8152c4158b0e94645910160405180910390a35b9091565b42841015611e495760405162461bcd60e51b815260206004820152600d60248201526c14185a5c8e8811561412549151609a1b6044820152606401610970565b7f8b73c3c69bb8fe3d512ecc4cf759cc79239f7b179b0ffacaa9a75d522b39400f6000604051611e7991906139e9565b60408051918290038220828201825260018352603160f81b6020938401528151928301939093528101919091527fc89efdaa54c0f20c7adf612882df0950f5a951637e0307cdcb4c672f298b8bc660608201524660808201523060a082015260c00160408051601f19818403018152918152815160209283012060058190556001600160a01b038a166000908152600690935290822080547f6e71edae12b1b97f4d1f60370fef10105fa2faae0126114a169c64845d6126c9918b918b918b919087611f44836139d0565b909155506040805160208101969096526001600160a01b0394851690860152929091166060840152608083015260a082015260c0810187905260e00160405160208183030381529060405280519060200120604051602001611fbd92919061190160f01b81526002810192909252602282015260420190565b60408051601f198184030181528282528051602091820120600080855291840180845281905260ff88169284019290925260608301869052608083018590529092509060019060a0016020604051602081039080840390855afa158015612028573d6000803e3d6000fd5b5050604051601f1901519150506001600160a01b0381161580159061205e5750886001600160a01b0316816001600160a01b0316145b6120aa5760405162461bcd60e51b815260206004820152601760248201527f506169723a20494e56414c49445f5349474e41545552450000000000000000006044820152606401610970565b6001600160a01b038981166000818152600360209081526040808320948d16808452948252918290208b905590518a81527f8c5be1e5ebec7d5bd14f71427d1e84f3dd0314c0f7b2291e5b200ac8c7c3b925910160405180910390a3505050505050505050565b600954600a54604051632895a2f560e11b81527f0000000000000000000000000000000000000000000000000000000000000000151560048201526000929190612710907f00000000000000000000000000000000000000000000000000000000000000006001600160a01b03169063512b45ea90602401602060405180830381865afa1580156121a6573d6000803e3d6000fd5b505050506040513d601f19601f820116820180604052508101906121ca91906138b5565b6121d490876138fb565b6121de9190613930565b6121e890866138e4565b94506121f685858484612ad8565b95945050505050565b60145460011461220e57600080fd5b60026014556040516370a0823160e01b8152306004820152612332907f00000000000000000000000000000000000000000000000000000000000000006001600160a01b0316906370a0823190602401602060405180830381865afa15801561227b573d6000803e3d6000fd5b505050506040513d601f19601f8201168201806040525081019061229f91906138b5565b6040516370a0823160e01b81523060048201527f00000000000000000000000000000000000000000000000000000000000000006001600160a01b0316906370a0823190602401602060405180830381865afa158015612303573d6000803e3d6000fd5b505050506040513d601f19601f8201168201806040525081019061232791906138b5565b600954600a54612944565b6001601455565b6000836001600160a01b03163b1161235057600080fd5b6040516001600160a01b03838116602483015260448201839052600091829186169063a9059cbb60e01b906064015b60408051601f198184030181529181526020820180516001600160e01b03166001600160e01b03199094169390931790925290516123bd9190613a84565b6000604051808303816000865af19150503d80600081146123fa576040519150601f19603f3d011682016040523d82523d6000602084013e6123ff565b606091505b5091509150818015612429575080511580612429575080806020019051810190612429919061384c565b61243257600080fd5b5050505050565b600754600160a01b900460ff1615156000036125195761249a7f00000000000000000000000000000000000000000000000000000000000000007f000000000000000000000000000000000000000000000000000000000000000083612339565b6002546000906124b283670de0b6b3a76400006138fb565b6124bc9190613930565b905080156124dc5780600e60008282546124d691906139a2565b90915550505b604080518381526000602082015233917fb75118ac1e658996b0987ebd00556f158baac6cfeaa58bb36cb7a7638d476a18910160405180910390a2505b600754600160a01b900460ff16151560010361266e57600754612567907f0000000000000000000000000000000000000000000000000000000000000000906001600160a01b031683613209565b60075460405163b66503cf60e01b81526001600160a01b037f000000000000000000000000000000000000000000000000000000000000000081166004830152602482018490529091169063b66503cf906044015b600060405180830381600087803b1580156125d657600080fd5b505af11580156125ea573d6000803e3d6000fd5b50505050600060025482670de0b6b3a764000061260791906138fb565b6126119190613930565b905080156126315780600e600082825461262b91906139a2565b90915550505b604080518381526000602082015233917fd5777f8e7aa26d20e6981a15ce7d449a0644b77d6fae37475f7f7fd39dd1c83e910160405180910390a2505b50565b600754600160a01b900460ff161515600003612751576126d27f00000000000000000000000000000000000000000000000000000000000000007f000000000000000000000000000000000000000000000000000000000000000083612339565b6002546000906126ea83670de0b6b3a76400006138fb565b6126f49190613930565b905080156127145780600e600082825461270e91906139a2565b90915550505b604080518381526000602082015233917fb75118ac1e658996b0987ebd00556f158baac6cfeaa58bb36cb7a7638d476a18910160405180910390a2505b600754600160a01b900460ff16151560010361266e5760075461279f907f0000000000000000000000000000000000000000000000000000000000000000906001600160a01b031683613209565b60075460405163b66503cf60e01b81526001600160a01b037f000000000000000000000000000000000000000000000000000000000000000081166004830152602482018490529091169063b66503cf906044016125bc565b60007f0000000000000000000000000000000000000000000000000000000000000000156129335760007f000000000000000000000000000000000000000000000000000000000000000061285585670de0b6b3a76400006138fb565b61285f9190613930565b905060007f000000000000000000000000000000000000000000000000000000000000000061289685670de0b6b3a76400006138fb565b6128a09190613930565b90506000670de0b6b3a76400006128b783856138fb565b6128c19190613930565b90506000670de0b6b3a76400006128d884806138fb565b6128e29190613930565b670de0b6b3a76400006128f586806138fb565b6128ff9190613930565b61290991906139a2565b9050670de0b6b3a764000061291e82846138fb565b6129289190613930565b9450505050506110d2565b61293d82846138fb565b90506110d2565b600b54429060009061295690836138e4565b905060008111801561296757508315155b801561297257508215155b156129b95761298181856138fb565b600c600082825461299291906139a2565b909155506129a2905081846138fb565b600d60008282546129b391906139a2565b90915550505b60006129c3611ab4565b80519091506129d290846138e4565b9150610708821115612a875760408051606081018252848152600c5460208201908152600d549282019283526008805460018101825560009190915291517ff3f7a9fe364faab93b216da50a3214154f22a0a2b415b23a84c8169e8b636ee3600390930292830155517ff3f7a9fe364faab93b216da50a3214154f22a0a2b415b23a84c8169e8b636ee482015590517ff3f7a9fe364faab93b216da50a3214154f22a0a2b415b23a84c8169e8b636ee5909101555b6009879055600a869055600b83905560408051888152602081018890527fcf2aa50876cdfbb541206f89af0ee78d44a2abf8d328e37fa4917f982149848a910160405180910390a150505050505050565b60007f000000000000000000000000000000000000000000000000000000000000000015612d5b576000612b0c84846127f8565b90507f0000000000000000000000000000000000000000000000000000000000000000612b4185670de0b6b3a76400006138fb565b612b4b9190613930565b93507f0000000000000000000000000000000000000000000000000000000000000000612b8084670de0b6b3a76400006138fb565b612b8a9190613930565b92506000807f00000000000000000000000000000000000000000000000000000000000000006001600160a01b0316876001600160a01b031614612bcf578486612bd2565b85855b915091507f00000000000000000000000000000000000000000000000000000000000000006001600160a01b0316876001600160a01b031614612c51577f0000000000000000000000000000000000000000000000000000000000000000612c4289670de0b6b3a76400006138fb565b612c4c9190613930565b612c8e565b7f0000000000000000000000000000000000000000000000000000000000000000612c8489670de0b6b3a76400006138fb565b612c8e9190613930565b97506000612ca6612c9f848b6139a2565b8584613253565b612cb090836138e4565b9050670de0b6b3a76400007f00000000000000000000000000000000000000000000000000000000000000006001600160a01b0316896001600160a01b031614612d1a577f0000000000000000000000000000000000000000000000000000000000000000612d3c565b7f00000000000000000000000000000000000000000000000000000000000000005b612d4690836138fb565b612d509190613930565b9450505050506112cc565b6000807f00000000000000000000000000000000000000000000000000000000000000006001600160a01b0316866001600160a01b031614612d9e578385612da1565b84845b9092509050612db087836139a2565b612dba82896138fb565b612dc49190613930565b925050506112cc565b612dd6836130a9565b612ddf826130a9565b6001600160a01b03831660009081526004602052604081208054839290612e079084906138e4565b90915550506001600160a01b03821660009081526004602052604081208054839290612e349084906139a2565b92505081905550816001600160a01b0316836001600160a01b03167fddf252ad1be2c89b69c2b068fc378daa952ba7f163c4a11628f55a4df523b3ef83604051612e8091815260200190565b60405180910390a3505050565b600081600003612e9f57506000919050565b60006001612eac84613362565b901c6001901b90506001818481612ec557612ec561391a565b048201901c90506001818481612edd57612edd61391a565b048201901c90506001818481612ef557612ef561391a565b048201901c90506001818481612f0d57612f0d61391a565b048201901c90506001818481612f2557612f2561391a565b048201901c90506001818481612f3d57612f3d61391a565b048201901c90506001818481612f5557612f5561391a565b048201901c905061140581828581612f6f57612f6f61391a565b04613008565b612f7e826130a9565b8060026000828254612f9091906139a2565b90915550506001600160a01b03821660009081526004602052604081208054839290612fbd9084906139a2565b90915550506040518181526001600160a01b038316906000907fddf252ad1be2c89b69c2b068fc378daa952ba7f163c4a11628f55a4df523b3ef906020015b60405180910390a35050565b60008183106130175781611405565b5090919050565b613027826130a9565b806002600082825461303991906138e4565b90915550506001600160a01b038216600090815260046020526040812080548392906130669084906138e4565b90915550506040518181526000906001600160a01b038416907fddf252ad1be2c89b69c2b068fc378daa952ba7f163c4a11628f55a4df523b3ef90602001612ffc565b6001600160a01b03811660009081526004602052604090205480156131d7576001600160a01b0382166000908152601060209081526040808320805460118085529285208054600e54600f5494819055949095528290559361310b85846138e4565b9050600061311985846138e4565b90508115613174576000670de0b6b3a7640000613136848a6138fb565b6131409190613930565b6001600160a01b038a1660009081526012602052604081208054929350839290919061316d9084906139a2565b9091555050505b80156131cd576000670de0b6b3a764000061318f838a6138fb565b6131999190613930565b6001600160a01b038a166000908152601360205260408120805492935083929091906131c69084906139a2565b9091555050505b5050505050505050565b600e546001600160a01b038316600090815260106020908152604080832093909355600f546011909152919020555050565b6000836001600160a01b03163b1161322057600080fd5b6040516001600160a01b03838116602483015260448201839052600091829186169063095ea7b360e01b9060640161237f565b6000805b60ff8110156133595782600061326d87836133f6565b9050858110156132bd5760006132838887613493565b61328d83896138e4565b61329f90670de0b6b3a76400006138fb565b6132a99190613930565b90506132b581876139a2565b9550506132ff565b60006132c98887613493565b6132d388846138e4565b6132e590670de0b6b3a76400006138fb565b6132ef9190613930565b90506132fb81876138e4565b9550505b8185111561332857600161331383876138e4565b1161332357849350505050611405565b613344565b600161333486846138e4565b1161334457849350505050611405565b50508080613351906139d0565b915050613257565b50909392505050565b600080608083901c1561337757608092831c92015b604083901c1561338957604092831c92015b602083901c1561339b57602092831c92015b601083901c156133ad57601092831c92015b600883901c156133bf57600892831c92015b600483901c156133d157600492831c92015b600283901c156133e357600292831c92015b600183901c156110d25760010192915050565b6000670de0b6b3a76400008281858161340f82806138fb565b6134199190613930565b61342391906138fb565b61342d9190613930565b61343791906138fb565b6134419190613930565b670de0b6b3a764000080848161345782806138fb565b6134619190613930565b61346b91906138fb565b6134759190613930565b61347f90866138fb565b6134899190613930565b61140591906139a2565b6000670de0b6b3a764000083816134aa82806138fb565b6134b49190613930565b6134be91906138fb565b6134c89190613930565b670de0b6b3a7640000806134dc85806138fb565b6134e69190613930565b6134f18660036138fb565b61347f91906138fb565b80356001600160a01b038116811461351257600080fd5b919050565b60008060008060006080868803121561352f57600080fd5b8535945060208601359350613546604087016134fb565b9250606086013567ffffffffffffffff8082111561356357600080fd5b818801915088601f83011261357757600080fd5b81358181111561358657600080fd5b89602082850101111561359857600080fd5b9699959850939650602001949392505050565b60005b838110156135c65781810151838201526020016135ae565b838111156135d5576000848401525b50505050565b60208152600082518060208401526135fa8160408501602087016135ab565b601f01601f19169190910160400192915050565b6000806040838503121561362157600080fd5b61362a836134fb565b946020939093013593505050565b6000806000806080858703121561364e57600080fd5b613657856134fb565b966020860135965060408601359560600135945092505050565b6020808252825182820181905260009190848201906040850190845b818110156136a95783518352928401929184019160010161368d565b50909695505050505050565b6000602082840312156136c757600080fd5b611405826134fb565b6000806000606084860312156136e557600080fd5b6136ee846134fb565b92506136fc602085016134fb565b9150604084013590509250925092565b60006020828403121561371e57600080fd5b5035919050565b60008060006060848603121561373a57600080fd5b613743846134fb565b95602085013595506040909401359392505050565b801515811461266e57600080fd5b60006020828403121561377857600080fd5b813561140581613758565b600080600080600080600060e0888a03121561379e57600080fd5b6137a7886134fb565b96506137b5602089016134fb565b95506040880135945060608801359350608088013560ff811681146137d957600080fd5b9699959850939692959460a0840135945060c09093013592915050565b6000806040838503121561380957600080fd5b613812836134fb565b9150613820602084016134fb565b90509250929050565b6000806040838503121561383c57600080fd5b82359150613820602084016134fb565b60006020828403121561385e57600080fd5b815161140581613758565b60018060a01b038616815284602082015283604082015260806060820152816080820152818360a0830137600081830160a090810191909152601f909201601f19160101949350505050565b6000602082840312156138c757600080fd5b5051919050565b634e487b7160e01b600052601160045260246000fd5b6000828210156138f6576138f66138ce565b500390565b6000816000190483118215151615613915576139156138ce565b500290565b634e487b7160e01b600052601260045260246000fd5b60008261394d57634e487b7160e01b600052601260045260246000fd5b500490565b600181811c9082168061396657607f821691505b60208210810361398657634e487b7160e01b600052602260045260246000fd5b50919050565b634e487b7160e01b600052604160045260246000fd5b600082198211156139b5576139b56138ce565b500190565b634e487b7160e01b600052603260045260246000fd5b6000600182016139e2576139e26138ce565b5060010190565b600080835481600182811c915080831680613a0557607f831692505b60208084108203613a2457634e487b7160e01b86526022600452602486fd5b818015613a385760018114613a4957613a76565b60ff19861689528489019650613a76565b60008a81526020902060005b86811015613a6e5781548b820152908501908301613a55565b505084890196505b509498975050505050505050565b60008251613a968184602087016135ab565b919091019291505056fea2646970667358221220c18029b37b4ba9598b7a15c570d5f67fea718f89a71ba37b597d6c2370e6363364736f6c634300080d003360e060405234801561001057600080fd5b5060405161037038038061037083398101604081905261002f91610066565b336080526001600160a01b0391821660a0521660c052610099565b80516001600160a01b038116811461006157600080fd5b919050565b6000806040838503121561007957600080fd5b6100828361004a565b91506100906020840161004a565b90509250929050565b60805160a05160c0516102ab6100c5600039600060b601526000608501526000605001526102ab6000f3fe608060405234801561001057600080fd5b506004361061002b5760003560e01c8063533cf5ce14610030575b600080fd5b61004361003e3660046101d0565b610045565b005b336001600160a01b037f0000000000000000000000000000000000000000000000000000000000000000161461007a57600080fd5b81156100ab576100ab7f000000000000000000000000000000000000000000000000000000000000000084846100e1565b80156100dc576100dc7f000000000000000000000000000000000000000000000000000000000000000084836100e1565b505050565b6000836001600160a01b03163b116100f857600080fd5b604080516001600160a01b038481166024830152604480830185905283518084039091018152606490920183526020820180516001600160e01b031663a9059cbb60e01b17905291516000928392908716916101549190610211565b6000604051808303816000865af19150503d8060008114610191576040519150601f19603f3d011682016040523d82523d6000602084013e610196565b606091505b50915091508180156101c05750805115806101c05750808060200190518101906101c0919061024c565b6101c957600080fd5b5050505050565b6000806000606084860312156101e557600080fd5b83356001600160a01b03811681146101fc57600080fd5b95602085013595506040909401359392505050565b6000825160005b818110156102325760208186018101518583015201610218565b81811115610241576000828501525b509190910192915050565b60006020828403121561025e57600080fd5b8151801515811461026e57600080fd5b939250505056fea2646970667358221220977a0aba7ae533650a3598f006447569d72a6641b58d295b5d98b8acbc9cf8eb64736f6c634300080d0033a264697066735822122044fc41bd0a8f8da42eba0d6acb0d79cdafb3eb7600cdceac8dec10106573b64d64736f6c634300080d0033",
  "devdoc": {
    "kind": "dev",
    "methods": {},
    "version": 1
  },
  "userdoc": {
    "kind": "user",
    "methods": {},
    "version": 1
  },
  "storageLayout": {
    "storage": [
      {
        "astId": 21707,
        "contract": "contracts/factories/PairFactory.sol:PairFactory",
        "label": "isPaused",
        "offset": 0,
        "slot": "0",
        "type": "t_bool"
      },
      {
        "astId": 21709,
        "contract": "contracts/factories/PairFactory.sol:PairFactory",
        "label": "pauser",
        "offset": 1,
        "slot": "0",
        "type": "t_address"
      },
      {
        "astId": 21711,
        "contract": "contracts/factories/PairFactory.sol:PairFactory",
        "label": "pendingPauser",
        "offset": 0,
        "slot": "1",
        "type": "t_address"
      },
      {
        "astId": 21713,
        "contract": "contracts/factories/PairFactory.sol:PairFactory",
        "label": "stableFee",
        "offset": 0,
        "slot": "2",
        "type": "t_uint256"
      },
      {
        "astId": 21715,
        "contract": "contracts/factories/PairFactory.sol:PairFactory",
        "label": "volatileFee",
        "offset": 0,
        "slot": "3",
        "type": "t_uint256"
      },
      {
        "astId": 21720,
        "contract": "contracts/factories/PairFactory.sol:PairFactory",
        "label": "feeManager",
        "offset": 0,
        "slot": "4",
        "type": "t_address"
      },
      {
        "astId": 21722,
        "contract": "contracts/factories/PairFactory.sol:PairFactory",
        "label": "pendingFeeManager",
        "offset": 0,
        "slot": "5",
        "type": "t_address"
      },
      {
        "astId": 21724,
        "contract": "contracts/factories/PairFactory.sol:PairFactory",
        "label": "voter",
        "offset": 0,
        "slot": "6",
        "type": "t_address"
      },
      {
        "astId": 21726,
        "contract": "contracts/factories/PairFactory.sol:PairFactory",
        "label": "team",
        "offset": 0,
        "slot": "7",
        "type": "t_address"
      },
      {
        "astId": 21728,
        "contract": "contracts/factories/PairFactory.sol:PairFactory",
        "label": "initial_voter_set",
        "offset": 20,
        "slot": "7",
        "type": "t_bool"
      },
      {
        "astId": 21730,
        "contract": "contracts/factories/PairFactory.sol:PairFactory",
        "label": "initial_tank_set",
        "offset": 21,
        "slot": "7",
        "type": "t_bool"
      },
      {
        "astId": 21732,
        "contract": "contracts/factories/PairFactory.sol:PairFactory",
        "label": "tank",
        "offset": 0,
        "slot": "8",
        "type": "t_address"
      },
      {
        "astId": 21734,
        "contract": "contracts/factories/PairFactory.sol:PairFactory",
        "label": "deployer",
        "offset": 0,
        "slot": "9",
        "type": "t_address"
      },
      {
        "astId": 21742,
        "contract": "contracts/factories/PairFactory.sol:PairFactory",
        "label": "getPair",
        "offset": 0,
        "slot": "10",
        "type": "t_mapping(t_address,t_mapping(t_address,t_mapping(t_bool,t_address)))"
      },
      {
        "astId": 21745,
        "contract": "contracts/factories/PairFactory.sol:PairFactory",
        "label": "allPairs",
        "offset": 0,
        "slot": "11",
        "type": "t_array(t_address)dyn_storage"
      },
      {
        "astId": 21749,
        "contract": "contracts/factories/PairFactory.sol:PairFactory",
        "label": "isPair",
        "offset": 0,
        "slot": "12",
        "type": "t_mapping(t_address,t_bool)"
      },
      {
        "astId": 21751,
        "contract": "contracts/factories/PairFactory.sol:PairFactory",
        "label": "_temp0",
        "offset": 0,
        "slot": "13",
        "type": "t_address"
      },
      {
        "astId": 21753,
        "contract": "contracts/factories/PairFactory.sol:PairFactory",
        "label": "_temp1",
        "offset": 0,
        "slot": "14",
        "type": "t_address"
      },
      {
        "astId": 21755,
        "contract": "contracts/factories/PairFactory.sol:PairFactory",
        "label": "_temp",
        "offset": 20,
        "slot": "14",
        "type": "t_bool"
      }
    ],
    "types": {
      "t_address": {
        "encoding": "inplace",
        "label": "address",
        "numberOfBytes": "20"
      },
      "t_array(t_address)dyn_storage": {
        "base": "t_address",
        "encoding": "dynamic_array",
        "label": "address[]",
        "numberOfBytes": "32"
      },
      "t_bool": {
        "encoding": "inplace",
        "label": "bool",
        "numberOfBytes": "1"
      },
      "t_mapping(t_address,t_bool)": {
        "encoding": "mapping",
        "key": "t_address",
        "label": "mapping(address => bool)",
        "numberOfBytes": "32",
        "value": "t_bool"
      },
      "t_mapping(t_address,t_mapping(t_address,t_mapping(t_bool,t_address)))": {
        "encoding": "mapping",
        "key": "t_address",
        "label": "mapping(address => mapping(address => mapping(bool => address)))",
        "numberOfBytes": "32",
        "value": "t_mapping(t_address,t_mapping(t_bool,t_address))"
      },
      "t_mapping(t_address,t_mapping(t_bool,t_address))": {
        "encoding": "mapping",
        "key": "t_address",
        "label": "mapping(address => mapping(bool => address))",
        "numberOfBytes": "32",
        "value": "t_mapping(t_bool,t_address)"
      },
      "t_mapping(t_bool,t_address)": {
        "encoding": "mapping",
        "key": "t_bool",
        "label": "mapping(bool => address)",
        "numberOfBytes": "32",
        "value": "t_address"
      },
      "t_uint256": {
        "encoding": "inplace",
        "label": "uint256",
        "numberOfBytes": "32"
      }
    }
  }
}