{
  "address": "0x01bdA92DaCDD2c6A35D131D543Cf17E6155E98C9",
  "abi": [
    {
      "inputs": [
        {
          "internalType": "address",
          "name": "__ve",
          "type": "address"
        },
        {
          "internalType": "address",
          "name": "_factory",
          "type": "address"
        },
        {
          "internalType": "address",
          "name": "_gauges",
          "type": "address"
        },
        {
          "internalType": "address",
          "name": "_bribes",
          "type": "address"
        },
        {
          "internalType": "address",
          "name": "_wrappedxbribefactory",
          "type": "address"
        }
      ],
      "stateMutability": "nonpayable",
      "type": "constructor"
    },
    {
      "anonymous": false,
      "inputs": [
        {
          "indexed": false,
          "internalType": "uint256",
          "name": "tokenId",
          "type": "uint256"
        },
        {
          "indexed": false,
          "internalType": "uint256",
          "name": "weight",
          "type": "uint256"
        }
      ],
      "name": "Abstained",
      "type": "event"
    },
    {
      "anonymous": false,
      "inputs": [
        {
          "indexed": true,
          "internalType": "address",
          "name": "owner",
          "type": "address"
        },
        {
          "indexed": true,
          "internalType": "address",
          "name": "gauge",
          "type": "address"
        },
        {
          "indexed": false,
          "internalType": "uint256",
          "name": "tokenId",
          "type": "uint256"
        }
      ],
      "name": "Attach",
      "type": "event"
    },
    {
      "anonymous": false,
      "inputs": [
        {
          "indexed": true,
          "internalType": "address",
          "name": "lp",
          "type": "address"
        },
        {
          "indexed": true,
          "internalType": "address",
          "name": "gauge",
          "type": "address"
        },
        {
          "indexed": false,
          "internalType": "uint256",
          "name": "tokenId",
          "type": "uint256"
        },
        {
          "indexed": false,
          "internalType": "uint256",
          "name": "amount",
          "type": "uint256"
        }
      ],
      "name": "Deposit",
      "type": "event"
    },
    {
      "anonymous": false,
      "inputs": [
        {
          "indexed": true,
          "internalType": "address",
          "name": "owner",
          "type": "address"
        },
        {
          "indexed": true,
          "internalType": "address",
          "name": "gauge",
          "type": "address"
        },
        {
          "indexed": false,
          "internalType": "uint256",
          "name": "tokenId",
          "type": "uint256"
        }
      ],
      "name": "Detach",
      "type": "event"
    },
    {
      "anonymous": false,
      "inputs": [
        {
          "indexed": true,
          "internalType": "address",
          "name": "sender",
          "type": "address"
        },
        {
          "indexed": true,
          "internalType": "address",
          "name": "gauge",
          "type": "address"
        },
        {
          "indexed": false,
          "internalType": "uint256",
          "name": "amount",
          "type": "uint256"
        }
      ],
      "name": "DistributeReward",
      "type": "event"
    },
    {
      "anonymous": false,
      "inputs": [
        {
          "indexed": true,
          "internalType": "address",
          "name": "gauge",
          "type": "address"
        },
        {
          "indexed": false,
          "internalType": "address",
          "name": "creator",
          "type": "address"
        },
        {
          "indexed": false,
          "internalType": "address",
          "name": "internal_bribe",
          "type": "address"
        },
        {
          "indexed": true,
          "internalType": "address",
          "name": "external_bribe",
          "type": "address"
        },
        {
          "indexed": false,
          "internalType": "address",
          "name": "wxbribe",
          "type": "address"
        },
        {
          "indexed": true,
          "internalType": "address",
          "name": "pool",
          "type": "address"
        }
      ],
      "name": "GaugeCreated",
      "type": "event"
    },
    {
      "anonymous": false,
      "inputs": [
        {
          "indexed": true,
          "internalType": "address",
          "name": "gauge",
          "type": "address"
        }
      ],
      "name": "GaugeKilled",
      "type": "event"
    },
    {
      "anonymous": false,
      "inputs": [
        {
          "indexed": true,
          "internalType": "address",
          "name": "gauge",
          "type": "address"
        }
      ],
      "name": "GaugeRevived",
      "type": "event"
    },
    {
      "anonymous": false,
      "inputs": [
        {
          "indexed": true,
          "internalType": "address",
          "name": "sender",
          "type": "address"
        },
        {
          "indexed": true,
          "internalType": "address",
          "name": "reward",
          "type": "address"
        },
        {
          "indexed": false,
          "internalType": "uint256",
          "name": "amount",
          "type": "uint256"
        }
      ],
      "name": "NotifyReward",
      "type": "event"
    },
    {
      "anonymous": false,
      "inputs": [
        {
          "indexed": true,
          "internalType": "address",
          "name": "voter",
          "type": "address"
        },
        {
          "indexed": false,
          "internalType": "uint256",
          "name": "tokenId",
          "type": "uint256"
        },
        {
          "indexed": false,
          "internalType": "uint256",
          "name": "weight",
          "type": "uint256"
        }
      ],
      "name": "Voted",
      "type": "event"
    },
    {
      "anonymous": false,
      "inputs": [
        {
          "indexed": true,
          "internalType": "address",
          "name": "whitelister",
          "type": "address"
        },
        {
          "indexed": true,
          "internalType": "address",
          "name": "token",
          "type": "address"
        }
      ],
      "name": "Whitelisted",
      "type": "event"
    },
    {
      "anonymous": false,
      "inputs": [
        {
          "indexed": true,
          "internalType": "address",
          "name": "lp",
          "type": "address"
        },
        {
          "indexed": true,
          "internalType": "address",
          "name": "gauge",
          "type": "address"
        },
        {
          "indexed": false,
          "internalType": "uint256",
          "name": "tokenId",
          "type": "uint256"
        },
        {
          "indexed": false,
          "internalType": "uint256",
          "name": "amount",
          "type": "uint256"
        }
      ],
      "name": "Withdraw",
      "type": "event"
    },
    {
      "inputs": [],
      "name": "_ve",
      "outputs": [
        {
          "internalType": "address",
          "name": "",
          "type": "address"
        }
      ],
      "stateMutability": "view",
      "type": "function"
    },
    {
      "inputs": [
        {
          "internalType": "uint256",
          "name": "tokenId",
          "type": "uint256"
        },
        {
          "internalType": "address",
          "name": "account",
          "type": "address"
        }
      ],
      "name": "attachTokenToGauge",
      "outputs": [],
      "stateMutability": "nonpayable",
      "type": "function"
    },
    {
      "inputs": [],
      "name": "bribefactory",
      "outputs": [
        {
          "internalType": "address",
          "name": "",
          "type": "address"
        }
      ],
      "stateMutability": "view",
      "type": "function"
    },
    {
      "inputs": [
        {
          "internalType": "address[]",
          "name": "_bribes",
          "type": "address[]"
        },
        {
          "internalType": "address[][]",
          "name": "_tokens",
          "type": "address[][]"
        },
        {
          "internalType": "uint256",
          "name": "_tokenId",
          "type": "uint256"
        }
      ],
      "name": "claimBribes",
      "outputs": [],
      "stateMutability": "nonpayable",
      "type": "function"
    },
    {
      "inputs": [
        {
          "internalType": "address[]",
          "name": "_fees",
          "type": "address[]"
        },
        {
          "internalType": "address[][]",
          "name": "_tokens",
          "type": "address[][]"
        },
        {
          "internalType": "uint256",
          "name": "_tokenId",
          "type": "uint256"
        }
      ],
      "name": "claimFees",
      "outputs": [],
      "stateMutability": "nonpayable",
      "type": "function"
    },
    {
      "inputs": [
        {
          "internalType": "address[]",
          "name": "_gauges",
          "type": "address[]"
        },
        {
          "internalType": "address[][]",
          "name": "_tokens",
          "type": "address[][]"
        }
      ],
      "name": "claimRewards",
      "outputs": [],
      "stateMutability": "nonpayable",
      "type": "function"
    },
    {
      "inputs": [
        {
          "internalType": "address",
          "name": "",
          "type": "address"
        }
      ],
      "name": "claimable",
      "outputs": [
        {
          "internalType": "uint256",
          "name": "",
          "type": "uint256"
        }
      ],
      "stateMutability": "view",
      "type": "function"
    },
    {
      "inputs": [
        {
          "internalType": "address",
          "name": "_pool",
          "type": "address"
        }
      ],
      "name": "createGauge",
      "outputs": [
        {
          "internalType": "address",
          "name": "",
          "type": "address"
        }
      ],
      "stateMutability": "nonpayable",
      "type": "function"
    },
    {
      "inputs": [
        {
          "internalType": "uint256",
          "name": "tokenId",
          "type": "uint256"
        },
        {
          "internalType": "address",
          "name": "account",
          "type": "address"
        }
      ],
      "name": "detachTokenFromGauge",
      "outputs": [],
      "stateMutability": "nonpayable",
      "type": "function"
    },
    {
      "inputs": [
        {
          "internalType": "address[]",
          "name": "_gauges",
          "type": "address[]"
        }
      ],
      "name": "distribute",
      "outputs": [],
      "stateMutability": "nonpayable",
      "type": "function"
    },
    {
      "inputs": [
        {
          "internalType": "address",
          "name": "_gauge",
          "type": "address"
        }
      ],
      "name": "distribute",
      "outputs": [],
      "stateMutability": "nonpayable",
      "type": "function"
    },
    {
      "inputs": [
        {
          "internalType": "uint256",
          "name": "start",
          "type": "uint256"
        },
        {
          "internalType": "uint256",
          "name": "finish",
          "type": "uint256"
        }
      ],
      "name": "distribute",
      "outputs": [],
      "stateMutability": "nonpayable",
      "type": "function"
    },
    {
      "inputs": [],
      "name": "distribute",
      "outputs": [],
      "stateMutability": "nonpayable",
      "type": "function"
    },
    {
      "inputs": [
        {
          "internalType": "address[]",
          "name": "_gauges",
          "type": "address[]"
        }
      ],
      "name": "distributeFees",
      "outputs": [],
      "stateMutability": "nonpayable",
      "type": "function"
    },
    {
      "inputs": [],
      "name": "distro",
      "outputs": [],
      "stateMutability": "nonpayable",
      "type": "function"
    },
    {
      "inputs": [],
      "name": "emergencyCouncil",
      "outputs": [
        {
          "internalType": "address",
          "name": "",
          "type": "address"
        }
      ],
      "stateMutability": "view",
      "type": "function"
    },
    {
      "inputs": [
        {
          "internalType": "uint256",
          "name": "tokenId",
          "type": "uint256"
        },
        {
          "internalType": "address",
          "name": "account",
          "type": "address"
        },
        {
          "internalType": "uint256",
          "name": "amount",
          "type": "uint256"
        }
      ],
      "name": "emitDeposit",
      "outputs": [],
      "stateMutability": "nonpayable",
      "type": "function"
    },
    {
      "inputs": [
        {
          "internalType": "uint256",
          "name": "tokenId",
          "type": "uint256"
        },
        {
          "internalType": "address",
          "name": "account",
          "type": "address"
        },
        {
          "internalType": "uint256",
          "name": "amount",
          "type": "uint256"
        }
      ],
      "name": "emitWithdraw",
      "outputs": [],
      "stateMutability": "nonpayable",
      "type": "function"
    },
    {
      "inputs": [
        {
          "internalType": "address",
          "name": "",
          "type": "address"
        }
      ],
      "name": "external_bribes",
      "outputs": [
        {
          "internalType": "address",
          "name": "",
          "type": "address"
        }
      ],
      "stateMutability": "view",
      "type": "function"
    },
    {
      "inputs": [],
      "name": "factory",
      "outputs": [
        {
          "internalType": "address",
          "name": "",
          "type": "address"
        }
      ],
      "stateMutability": "view",
      "type": "function"
    },
    {
      "inputs": [],
      "name": "gaugefactory",
      "outputs": [
        {
          "internalType": "address",
          "name": "",
          "type": "address"
        }
      ],
      "stateMutability": "view",
      "type": "function"
    },
    {
      "inputs": [
        {
          "internalType": "address",
          "name": "",
          "type": "address"
        }
      ],
      "name": "gauges",
      "outputs": [
        {
          "internalType": "address",
          "name": "",
          "type": "address"
        }
      ],
      "stateMutability": "view",
      "type": "function"
    },
    {
      "inputs": [],
      "name": "governor",
      "outputs": [
        {
          "internalType": "address",
          "name": "",
          "type": "address"
        }
      ],
      "stateMutability": "view",
      "type": "function"
    },
    {
      "inputs": [
        {
          "internalType": "address[]",
          "name": "_tokens",
          "type": "address[]"
        },
        {
          "internalType": "address",
          "name": "_minter",
          "type": "address"
        }
      ],
      "name": "initialize",
      "outputs": [],
      "stateMutability": "nonpayable",
      "type": "function"
    },
    {
      "inputs": [
        {
          "internalType": "address",
          "name": "",
          "type": "address"
        }
      ],
      "name": "internal_bribes",
      "outputs": [
        {
          "internalType": "address",
          "name": "",
          "type": "address"
        }
      ],
      "stateMutability": "view",
      "type": "function"
    },
    {
      "inputs": [
        {
          "internalType": "address",
          "name": "",
          "type": "address"
        }
      ],
      "name": "isAlive",
      "outputs": [
        {
          "internalType": "bool",
          "name": "",
          "type": "bool"
        }
      ],
      "stateMutability": "view",
      "type": "function"
    },
    {
      "inputs": [
        {
          "internalType": "address",
          "name": "",
          "type": "address"
        }
      ],
      "name": "isGauge",
      "outputs": [
        {
          "internalType": "bool",
          "name": "",
          "type": "bool"
        }
      ],
      "stateMutability": "view",
      "type": "function"
    },
    {
      "inputs": [
        {
          "internalType": "address",
          "name": "",
          "type": "address"
        }
      ],
      "name": "isWhitelisted",
      "outputs": [
        {
          "internalType": "bool",
          "name": "",
          "type": "bool"
        }
      ],
      "stateMutability": "view",
      "type": "function"
    },
    {
      "inputs": [
        {
          "internalType": "address",
          "name": "_gauge",
          "type": "address"
        }
      ],
      "name": "killGauge",
      "outputs": [],
      "stateMutability": "nonpayable",
      "type": "function"
    },
    {
      "inputs": [
        {
          "internalType": "uint256",
          "name": "",
          "type": "uint256"
        }
      ],
      "name": "lastVoted",
      "outputs": [
        {
          "internalType": "uint256",
          "name": "",
          "type": "uint256"
        }
      ],
      "stateMutability": "view",
      "type": "function"
    },
    {
      "inputs": [],
      "name": "length",
      "outputs": [
        {
          "internalType": "uint256",
          "name": "",
          "type": "uint256"
        }
      ],
      "stateMutability": "view",
      "type": "function"
    },
    {
      "inputs": [],
      "name": "minter",
      "outputs": [
        {
          "internalType": "address",
          "name": "",
          "type": "address"
        }
      ],
      "stateMutability": "view",
      "type": "function"
    },
    {
      "inputs": [
        {
          "internalType": "uint256",
          "name": "amount",
          "type": "uint256"
        }
      ],
      "name": "notifyRewardAmount",
      "outputs": [],
      "stateMutability": "nonpayable",
      "type": "function"
    },
    {
      "inputs": [
        {
          "internalType": "uint256",
          "name": "_tokenId",
          "type": "uint256"
        }
      ],
      "name": "poke",
      "outputs": [],
      "stateMutability": "nonpayable",
      "type": "function"
    },
    {
      "inputs": [
        {
          "internalType": "address",
          "name": "",
          "type": "address"
        }
      ],
      "name": "poolForGauge",
      "outputs": [
        {
          "internalType": "address",
          "name": "",
          "type": "address"
        }
      ],
      "stateMutability": "view",
      "type": "function"
    },
    {
      "inputs": [
        {
          "internalType": "uint256",
          "name": "",
          "type": "uint256"
        },
        {
          "internalType": "uint256",
          "name": "",
          "type": "uint256"
        }
      ],
      "name": "poolVote",
      "outputs": [
        {
          "internalType": "address",
          "name": "",
          "type": "address"
        }
      ],
      "stateMutability": "view",
      "type": "function"
    },
    {
      "inputs": [
        {
          "internalType": "uint256",
          "name": "",
          "type": "uint256"
        }
      ],
      "name": "pools",
      "outputs": [
        {
          "internalType": "address",
          "name": "",
          "type": "address"
        }
      ],
      "stateMutability": "view",
      "type": "function"
    },
    {
      "inputs": [
        {
          "internalType": "uint256",
          "name": "_tokenId",
          "type": "uint256"
        }
      ],
      "name": "reset",
      "outputs": [],
      "stateMutability": "nonpayable",
      "type": "function"
    },
    {
      "inputs": [
        {
          "internalType": "address",
          "name": "_gauge",
          "type": "address"
        }
      ],
      "name": "reviveGauge",
      "outputs": [],
      "stateMutability": "nonpayable",
      "type": "function"
    },
    {
      "inputs": [
        {
          "internalType": "address",
          "name": "_council",
          "type": "address"
        }
      ],
      "name": "setEmergencyCouncil",
      "outputs": [],
      "stateMutability": "nonpayable",
      "type": "function"
    },
    {
      "inputs": [
        {
          "internalType": "address",
          "name": "_governor",
          "type": "address"
        }
      ],
      "name": "setGovernor",
      "outputs": [],
      "stateMutability": "nonpayable",
      "type": "function"
    },
    {
      "inputs": [],
      "name": "totalWeight",
      "outputs": [
        {
          "internalType": "uint256",
          "name": "",
          "type": "uint256"
        }
      ],
      "stateMutability": "view",
      "type": "function"
    },
    {
      "inputs": [],
      "name": "updateAll",
      "outputs": [],
      "stateMutability": "nonpayable",
      "type": "function"
    },
    {
      "inputs": [
        {
          "internalType": "address[]",
          "name": "_gauges",
          "type": "address[]"
        }
      ],
      "name": "updateFor",
      "outputs": [],
      "stateMutability": "nonpayable",
      "type": "function"
    },
    {
      "inputs": [
        {
          "internalType": "uint256",
          "name": "start",
          "type": "uint256"
        },
        {
          "internalType": "uint256",
          "name": "end",
          "type": "uint256"
        }
      ],
      "name": "updateForRange",
      "outputs": [],
      "stateMutability": "nonpayable",
      "type": "function"
    },
    {
      "inputs": [
        {
          "internalType": "address",
          "name": "_gauge",
          "type": "address"
        }
      ],
      "name": "updateGauge",
      "outputs": [],
      "stateMutability": "nonpayable",
      "type": "function"
    },
    {
      "inputs": [
        {
          "internalType": "uint256",
          "name": "",
          "type": "uint256"
        }
      ],
      "name": "usedWeights",
      "outputs": [
        {
          "internalType": "uint256",
          "name": "",
          "type": "uint256"
        }
      ],
      "stateMutability": "view",
      "type": "function"
    },
    {
      "inputs": [
        {
          "internalType": "uint256",
          "name": "tokenId",
          "type": "uint256"
        },
        {
          "internalType": "address[]",
          "name": "_poolVote",
          "type": "address[]"
        },
        {
          "internalType": "uint256[]",
          "name": "_weights",
          "type": "uint256[]"
        }
      ],
      "name": "vote",
      "outputs": [],
      "stateMutability": "nonpayable",
      "type": "function"
    },
    {
      "inputs": [
        {
          "internalType": "uint256",
          "name": "",
          "type": "uint256"
        },
        {
          "internalType": "address",
          "name": "",
          "type": "address"
        }
      ],
      "name": "votes",
      "outputs": [
        {
          "internalType": "uint256",
          "name": "",
          "type": "uint256"
        }
      ],
      "stateMutability": "view",
      "type": "function"
    },
    {
      "inputs": [
        {
          "internalType": "address",
          "name": "",
          "type": "address"
        }
      ],
      "name": "weights",
      "outputs": [
        {
          "internalType": "uint256",
          "name": "",
          "type": "uint256"
        }
      ],
      "stateMutability": "view",
      "type": "function"
    },
    {
      "inputs": [
        {
          "internalType": "address",
          "name": "_token",
          "type": "address"
        }
      ],
      "name": "whitelist",
      "outputs": [],
      "stateMutability": "nonpayable",
      "type": "function"
    },
    {
      "inputs": [],
      "name": "wrappedxbribefactory",
      "outputs": [
        {
          "internalType": "address",
          "name": "",
          "type": "address"
        }
      ],
      "stateMutability": "view",
      "type": "function"
    }
  ],
  "transactionHash": "0x76a623b9ec21116eeb6100f5002d8cd5fc4d8746dc527af3be86a11f2a6d575c",
  "args": [
    "0x732E968B0B07C4B76d52Ec7116B0241d626c83ce",
    "0xC0695425212E400F6b6ad2a7b5F258Ef1d504216",
    "0x5Bd5523dfF684C0e9117E632c561489ecb81566C",
    "0x37b7E6eA5a3Fb4951a64A6a3Ad8Ec7B4756e65D3",
    "0xd92CEBE3083769F1f7F5c2933Cc183Ab36a3a509"
  ],
  "numDeployments": 1,
  "solcInputHash": "e7364677e32bfe551c885b32732e3555",
  "bytecode": "0x61014060405260016011553480156200001757600080fd5b50604051620039da380380620039da8339810160408190526200003a9162000123565b6001600160a01b03808616608081905290851660a05260408051637e062a3560e11b8152905163fc0c546a916004808201926020929091908290030181865afa1580156200008c573d6000803e3d6000fd5b505050506040513d601f19601f82011682018060405250810190620000b2919062000193565b6001600160a01b0390811660c05292831660e052908216610100521661012052505060008054336001600160a01b0319918216811790925560018054821683179055600280549091169091179055620001b8565b80516001600160a01b03811681146200011e57600080fd5b919050565b600080600080600060a086880312156200013c57600080fd5b620001478662000106565b9450620001576020870162000106565b9350620001676040870162000106565b9250620001776060870162000106565b9150620001876080870162000106565b90509295509295909350565b600060208284031215620001a657600080fd5b620001b18262000106565b9392505050565b60805160a05160c05160e0516101005161012051613731620002a9600039600081816104c80152611e8701526000818161040201528181611d570152611dd50152600081816105150152611efa015260008181610c8301528181610cfc01528181610fcc0152818161108801528181611bbc01528181611bf501528181611c270152611fdb01526000818161073e0152611a130152600081816105ce0152818161096d01528181610a1901528181610a9d01528181610d8901528181611158015281816112d901528181611409015281816115c801528181611f2c015281816129360152612cf901526137316000f3fe608060405234801561001057600080fd5b506004361061030c5760003560e01c806379e938241161019d578063ac4afa38116100e9578063d23254b4116100a2578063e586875f1161007c578063e586875f146107b1578063ea94ee44146107c4578063eae40f26146107d7578063f3594be01461080057600080fd5b8063d23254b414610773578063d560b0d71461079e578063e4fc6b6d146104a057600080fd5b8063ac4afa38146106c1578063ae21c4cb146106d4578063b9a09fd5146106fd578063c42cf53514610726578063c45a015514610739578063c527ee1f1461076057600080fd5b80639b6a9d7211610156578063a61c713a11610130578063a61c713a14610658578063a7cac8461461066b578063a86a366d1461068b578063aa79979b1461069e57600080fd5b80639b6a9d721461061f5780639f06247b14610632578063a5f4301e1461064557600080fd5b806379e93824146105965780637ac09bf7146105b65780638dd598fb146105c957806396c82e57146105f0578063992a7933146105f95780639b19251a1461060c57600080fd5b8063462d0b2e1161025c578063666256aa116102155780636ecbe38a116101ef5780636ecbe38a1461054a5780637625391a1461055d5780637715ee75146105705780637778960e1461058357600080fd5b8063666256aa146104fd57806368c3acb314610510578063698473e31461053757600080fd5b8063462d0b2e1461048d57806347b3c6ba146104a057806353d78693146104a85780636138889b146104b057806361aacd47146104c357806363453ae1146104ea57600080fd5b8063310bd74b116102c95780633af32abf116102a35780633af32abf146104245780633c6b16ab14610447578063402914f51461045a578063411b1f771461047a57600080fd5b8063310bd74b146103d757806332145f90146103ea57806338752a9d146103fd57600080fd5b806306d6a1b21461031157806307546172146103575780630c340a241461036a5780631703e5f91461037d5780631f7b6d32146103b057806320b1cb6f146103c2575b600080fd5b61033a61031f36600461303b565b6006602052600090815260409020546001600160a01b031681565b6040516001600160a01b0390911681526020015b60405180910390f35b60005461033a906001600160a01b031681565b60015461033a906001600160a01b031681565b6103a061038b36600461303b565b60106020526000908152604090205460ff1681565b604051901515815260200161034e565b6004545b60405190815260200161034e565b6103d56103d03660046131be565b610820565b005b6103d56103e5366004613222565b6108d6565b6103d56103f8366004613222565b610a81565b61033a7f000000000000000000000000000000000000000000000000000000000000000081565b6103a061043236600461303b565b600f6020526000908152604090205460ff1681565b6103d5610455366004613222565b610c7e565b6103b461046836600461303b565b60146020526000908152604090205481565b6103d561048836600461323b565b610d51565b6103d561049b36600461326b565b610e2b565b6103d5610ea6565b6103d5610eb7565b6103d56104be3660046132b2565b610ec6565b61033a7f000000000000000000000000000000000000000000000000000000000000000081565b6103d56104f836600461303b565b610f0a565b6103d561050b3660046132ef565b61113c565b61033a7f000000000000000000000000000000000000000000000000000000000000000081565b6103d561054536600461323b565b611285565b6103d561055836600461303b565b61137b565b6103d561056b36600461335c565b611387565b6103d561057e3660046132ef565b6113ed565b60025461033a906001600160a01b031681565b6103b46105a4366004613222565b600c6020526000908152604090205481565b6103d56105c43660046133ca565b611536565b61033a7f000000000000000000000000000000000000000000000000000000000000000081565b6103b460035481565b6103d561060736600461303b565b6116ce565b6103d561061a36600461303b565b6117d3565b6103d561062d36600461335c565b6117f3565b6103d561064036600461303b565b611859565b61033a61065336600461303b565b611956565b6103d5610666366004613444565b612357565b6103b461067936600461303b565b60096020526000908152604090205481565b61033a61069936600461335c565b6123db565b6103a06106ac36600461303b565b600e6020526000908152604090205460ff1681565b61033a6106cf366004613222565b612413565b61033a6106e236600461303b565b6008602052600090815260409020546001600160a01b031681565b61033a61070b36600461303b565b6005602052600090815260409020546001600160a01b031681565b6103d561073436600461303b565b61243d565b61033a7f000000000000000000000000000000000000000000000000000000000000000081565b6103d561076e3660046132b2565b612476565b6103b461078136600461323b565b600a60209081526000928352604080842090915290825290205481565b6103d56107ac3660046132b2565b612593565b6103d56107bf36600461303b565b6125d3565b6103d56107d2366004613444565b61260c565b61033a6107e536600461303b565b6007602052600090815260409020546001600160a01b031681565b6103b461080e366004613222565b600d6020526000908152604090205481565b60005b82518110156108d15782818151811061083e5761083e61347c565b60200260200101516001600160a01b03166331279d3d338484815181106108675761086761347c565b60200260200101516040518363ffffffff1660e01b815260040161088c9291906134d6565b600060405180830381600087803b1580156108a657600080fd5b505af11580156108ba573d6000803e3d6000fd5b5050505080806108c990613510565b915050610823565b505050565b6000818152600d6020526040902054819062093a806108f58142613529565b6108ff919061354b565b116109515760405162461bcd60e51b815260206004820152601e60248201527f544f4b454e5f414c52454144595f564f5445445f544849535f45504f4348000060448201526064015b60405180910390fd5b60405163430c208160e01b8152336004820152602481018390527f00000000000000000000000000000000000000000000000000000000000000006001600160a01b03169063430c208190604401602060405180830381865afa1580156109bc573d6000803e3d6000fd5b505050506040513d601f19601f820116820180604052508101906109e0919061356a565b6109e957600080fd5b6000828152600d60205260409020429055610a038261266b565b60405163c1f0fb9f60e01b8152600481018390527f00000000000000000000000000000000000000000000000000000000000000006001600160a01b03169063c1f0fb9f90602401600060405180830381600087803b158015610a6557600080fd5b505af1158015610a79573d6000803e3d6000fd5b505050505050565b60405163430c208160e01b8152336004820152602481018290527f00000000000000000000000000000000000000000000000000000000000000006001600160a01b03169063430c208190604401602060405180830381865afa158015610aec573d6000803e3d6000fd5b505050506040513d601f19601f82011682018060405250810190610b10919061356a565b80610b2557506001546001600160a01b031633145b610b2e57600080fd5b6000818152600b6020908152604080832080548251818502810185019093528083529192909190830182828015610b8e57602002820191906000526020600020905b81546001600160a01b03168152600190910190602001808311610b70575b5050505050905060008151905060008167ffffffffffffffff811115610bb657610bb661305f565b604051908082528060200260200182016040528015610bdf578160200160208202803683370190505b50905060005b82811015610c6c57600a60008681526020019081526020016000206000858381518110610c1457610c1461347c565b60200260200101516001600160a01b03166001600160a01b0316815260200190815260200160002054828281518110610c4f57610c4f61347c565b602090810291909101015280610c6481613510565b915050610be5565b50610c78848483612912565b50505050565b610caa7f0000000000000000000000000000000000000000000000000000000000000000333084612d90565b600354600090610cc283670de0b6b3a764000061354b565b610ccc9190613529565b90508015610cec578060126000828254610ce6919061358c565b90915550505b6040518281526001600160a01b037f0000000000000000000000000000000000000000000000000000000000000000169033907ff70d5c697de7ea828df48e5c4573cb2194c659f1901f70110c52b066dcf50826906020015b60405180910390a35050565b336000908152600e602052604090205460ff16610d6d57600080fd5b8115610dee57604051634c35bec560e11b8152600481018390527f00000000000000000000000000000000000000000000000000000000000000006001600160a01b03169063986b7d8a90602401600060405180830381600087803b158015610dd557600080fd5b505af1158015610de9573d6000803e3d6000fd5b505050505b60405182815233906001600160a01b038316907fae268d9aab12f3605f58efd74fd3801fa812b03fdb44317eb70f46dff0e19e2290602001610d45565b6000546001600160a01b03163314610e4257600080fd5b60005b8251811015610e8257610e70838281518110610e6357610e6361347c565b6020026020010151612e80565b80610e7a81613510565b915050610e45565b50600080546001600160a01b0319166001600160a01b039290921691909117905550565b600454610eb590600090611387565b565b600454610eb5906000906117f3565b60005b8151811015610f0657610ef4828281518110610ee757610ee761347c565b6020026020010151610f0a565b80610efe81613510565b915050610ec9565b5050565b601154600114610f1957600080fd5b600260118190555060008054906101000a90046001600160a01b03166001600160a01b031663ed29fc116040518163ffffffff1660e01b81526004016020604051808303816000875af1158015610f74573d6000803e3d6000fd5b505050506040513d601f19601f82011682018060405250810190610f9891906135a4565b50610fa281612ef3565b6001600160a01b0381811660008181526014602052604090819020549051634cde602960e11b81527f00000000000000000000000000000000000000000000000000000000000000009093166004840152916399bcc05290602401602060405180830381865afa15801561101a573d6000803e3d6000fd5b505050506040513d601f19601f8201168201806040525081019061103e91906135a4565b811180156110585750600061105662093a8083613529565b115b15611133576001600160a01b03828116600081815260146020526040808220919091555163b66503cf60e01b81527f00000000000000000000000000000000000000000000000000000000000000009092166004830152602482018390529063b66503cf90604401600060405180830381600087803b1580156110da57600080fd5b505af11580156110ee573d6000803e3d6000fd5b50506040518381526001600160a01b03851692503391507f4fa9693cae526341d334e2862ca2413b2e503f1266255f9e0869fb36e6d89b179060200160405180910390a35b50506001601155565b60405163430c208160e01b8152336004820152602481018290527f00000000000000000000000000000000000000000000000000000000000000006001600160a01b03169063430c208190604401602060405180830381865afa1580156111a7573d6000803e3d6000fd5b505050506040513d601f19601f820116820180604052508101906111cb919061356a565b6111d457600080fd5b60005b8351811015610c78578381815181106111f2576111f261347c565b60200260200101516001600160a01b031663a7852afa8385848151811061121b5761121b61347c565b60200260200101516040518363ffffffff1660e01b81526004016112409291906135bd565b600060405180830381600087803b15801561125a57600080fd5b505af115801561126e573d6000803e3d6000fd5b50505050808061127d90613510565b9150506111d7565b336000908152600e602052604090205460ff166112a157600080fd5b3360009081526010602052604090205460ff166112bd57600080fd5b811561133e5760405163fbd3a29d60e01b8152600481018390527f00000000000000000000000000000000000000000000000000000000000000006001600160a01b03169063fbd3a29d90602401600060405180830381600087803b15801561132557600080fd5b505af1158015611339573d6000803e3d6000fd5b505050505b60405182815233906001600160a01b038316907f60940192810a6fb3bce3fd3e2e3a13fd6ccc7605e963fb87ee971aba829989bd90602001610d45565b61138481612ef3565b50565b815b818110156108d1576113db60056000600484815481106113ab576113ab61347c565b60009182526020808320909101546001600160a01b03908116845290830193909352604090910190205416610f0a565b806113e581613510565b915050611389565b60405163430c208160e01b8152336004820152602481018290527f00000000000000000000000000000000000000000000000000000000000000006001600160a01b03169063430c208190604401602060405180830381865afa158015611458573d6000803e3d6000fd5b505050506040513d601f19601f8201168201806040525081019061147c919061356a565b61148557600080fd5b60005b8351811015610c78578381815181106114a3576114a361347c565b60200260200101516001600160a01b031663a7852afa838584815181106114cc576114cc61347c565b60200260200101516040518363ffffffff1660e01b81526004016114f19291906135bd565b600060405180830381600087803b15801561150b57600080fd5b505af115801561151f573d6000803e3d6000fd5b50505050808061152e90613510565b915050611488565b6000858152600d6020526040902054859062093a806115558142613529565b61155f919061354b565b116115ac5760405162461bcd60e51b815260206004820152601e60248201527f544f4b454e5f414c52454144595f564f5445445f544849535f45504f434800006044820152606401610948565b60405163430c208160e01b8152336004820152602481018790527f00000000000000000000000000000000000000000000000000000000000000006001600160a01b03169063430c208190604401602060405180830381865afa158015611617573d6000803e3d6000fd5b505050506040513d601f19601f8201168201806040525081019061163b919061356a565b61164457600080fd5b83821461165057600080fd5b6000868152600d602090815260409182902042905581518682028181018301909352868152610a799289928991899182919085019084908082843760009201919091525050604080516020808a0282810182019093528982529093508992508891829185019084908082843760009201919091525061291292505050565b6002546001600160a01b031633146117205760405162461bcd60e51b81526020600482015260156024820152741b9bdd08195b595c99d95b98de4818dbdd5b98da5b605a1b6044820152606401610948565b6001600160a01b03811660009081526010602052604090205460ff1661177d5760405162461bcd60e51b815260206004820152601260248201527119d85d59d948185b1c9958591e481919585960721b6044820152606401610948565b6001600160a01b0381166000818152601060209081526040808320805460ff191690556014909152808220829055517f04a5d3f5d80d22d9345acc80618f4a4e7e663cf9e1aed23b57d975acec002ba79190a250565b6001546001600160a01b031633146117ea57600080fd5b61138481612e80565b815b818110156108d15761184760056000600484815481106118175761181761347c565b60009182526020808320909101546001600160a01b03908116845290830193909352604090910190205416612ef3565b8061185181613510565b9150506117f5565b6002546001600160a01b031633146118ab5760405162461bcd60e51b81526020600482015260156024820152741b9bdd08195b595c99d95b98de4818dbdd5b98da5b605a1b6044820152606401610948565b6001600160a01b03811660009081526010602052604090205460ff161561190a5760405162461bcd60e51b8152602060048201526013602482015272676175676520616c726561647920616c69766560681b6044820152606401610948565b6001600160a01b038116600081815260106020526040808220805460ff19166001179055517fed18e9faa3dccfd8aa45f69c4de40546b2ca9cccc4538a2323531656516db1aa9190a250565b6001600160a01b03818116600090815260056020526040812054909116156119a95760405162461bcd60e51b815260206004820152600660248201526565786973747360d01b6044820152606401610948565b60408051600380825260808201909252600091602082016060803683375050604080516002808252606082018352939450600093909250906020830190803683370190505060405163e5e31b1360e01b81526001600160a01b0386811660048301529192506000917f0000000000000000000000000000000000000000000000000000000000000000169063e5e31b1390602401602060405180830381865afa158015611a5a573d6000803e3d6000fd5b505050506040513d601f19601f82011682018060405250810190611a7e919061356a565b90506000808215611c7a57866001600160a01b0316639d63848a6040518163ffffffff1660e01b815260040160408051808303816000875af1158015611ac8573d6000803e3d6000fd5b505050506040513d601f19601f82011682018060405250810190611aec91906135d6565b80925081935050508185600081518110611b0857611b0861347c565b60200260200101906001600160a01b031690816001600160a01b0316815250508085600181518110611b3c57611b3c61347c565b60200260200101906001600160a01b031690816001600160a01b0316815250508184600081518110611b7057611b7061347c565b60200260200101906001600160a01b031690816001600160a01b0316815250508084600181518110611ba457611ba461347c565b6001600160a01b0392831660209182029290920101527f0000000000000000000000000000000000000000000000000000000000000000811690831614801590611c205750806001600160a01b03167f00000000000000000000000000000000000000000000000000000000000000006001600160a01b031614155b15611c7a577f000000000000000000000000000000000000000000000000000000000000000085600281518110611c5957611c5961347c565b60200260200101906001600160a01b031690816001600160a01b0316815250505b6001546001600160a01b03163314611d3d5782611cc25760405162461bcd60e51b81526020600482015260066024820152650857dc1bdbdb60d21b6044820152606401610948565b6001600160a01b0382166000908152600f602052604090205460ff168015611d0257506001600160a01b0381166000908152600f602052604090205460ff165b611d3d5760405162461bcd60e51b815260206004820152600c60248201526b085dda1a5d195b1a5cdd195960a21b6044820152606401610948565b604051632a26b9eb60e01b81526000906001600160a01b037f00000000000000000000000000000000000000000000000000000000000000001690632a26b9eb90611d8c908890600401613605565b6020604051808303816000875af1158015611dab573d6000803e3d6000fd5b505050506040513d601f19601f82011682018060405250810190611dcf9190613618565b905060007f00000000000000000000000000000000000000000000000000000000000000006001600160a01b0316636485f0c4886040518263ffffffff1660e01b8152600401611e1f9190613605565b6020604051808303816000875af1158015611e3e573d6000803e3d6000fd5b505050506040513d601f19601f82011682018060405250810190611e629190613618565b604051631af469cb60e21b81526001600160a01b0380831660048301529192506000917f00000000000000000000000000000000000000000000000000000000000000001690636bd1a72c906024016020604051808303816000875af1158015611ed0573d6000803e3d6000fd5b505050506040513d601f19601f82011682018060405250810190611ef49190613618565b905060007f00000000000000000000000000000000000000000000000000000000000000006001600160a01b0316630bc25f4f8c86867f00000000000000000000000000000000000000000000000000000000000000008c8f6040518763ffffffff1660e01b8152600401611f6e96959493929190613635565b6020604051808303816000875af1158015611f8d573d6000803e3d6000fd5b505050506040513d601f19601f82011682018060405250810190611fb19190613618565b60405163095ea7b360e01b81526001600160a01b03808316600483015260001960248301529192507f00000000000000000000000000000000000000000000000000000000000000009091169063095ea7b3906044016020604051808303816000875af1158015612026573d6000803e3d6000fd5b505050506040513d601f19601f8201168201806040525081019061204a919061356a565b508360076000836001600160a01b03166001600160a01b0316815260200190815260200160002060006101000a8154816001600160a01b0302191690836001600160a01b031602179055508260086000836001600160a01b03166001600160a01b0316815260200190815260200160002060006101000a8154816001600160a01b0302191690836001600160a01b0316021790555080600560008d6001600160a01b03166001600160a01b0316815260200190815260200160002060006101000a8154816001600160a01b0302191690836001600160a01b031602179055508a60066000836001600160a01b03166001600160a01b0316815260200190815260200160002060006101000a8154816001600160a01b0302191690836001600160a01b031602179055506001600e6000836001600160a01b03166001600160a01b0316815260200190815260200160002060006101000a81548160ff021916908315150217905550600160106000836001600160a01b03166001600160a01b0316815260200190815260200160002060006101000a81548160ff0219169083151502179055506121f881612ef3565b600480546001808201835560008390527f8a35acfbc15ff81a39ae7d344fd709f28e8600b4aa8c65c6b64bfe7fe36bd19b90910180546001600160a01b0319166001600160a01b038f169081179091556040516305916c7f60e51b8152928301919091529063b22d8fe090602401600060405180830381600087803b15801561228057600080fd5b505af1158015612294573d6000803e3d6000fd5b5050604051630ccccab360e11b81526001600160a01b0386811660048301528e16925063199995669150602401600060405180830381600087803b1580156122db57600080fd5b505af11580156122ef573d6000803e3d6000fd5b5050604080513381526001600160a01b0388811660208301528681168284015291518f831694508783169350918516917f63b97929cae47d2d1c9d5b568dcc31ecc6b6be5a51168abafc3d5d07e29add919181900360600190a49a9950505050505050505050565b336000908152600e602052604090205460ff1661237357600080fd5b3360009081526010602052604090205460ff1661238f57600080fd5b604080518481526020810183905233916001600160a01b038516917fdcbc1c05240f31ff3ad067ef1ee35ce4997762752e3a095284754544f4c709d791015b60405180910390a3505050565b600b60205281600052604060002081815481106123f757600080fd5b6000918252602090912001546001600160a01b03169150829050565b6004818154811061242357600080fd5b6000918252602090912001546001600160a01b0316905081565b6001546001600160a01b0316331461245457600080fd5b600180546001600160a01b0319166001600160a01b0392909216919091179055565b60005b8151811015610f06578181815181106124945761249461347c565b60200260200101516001600160a01b031663e57482136040518163ffffffff1660e01b8152600401602060405180830381865afa1580156124d9573d6000803e3d6000fd5b505050506040513d601f19601f820116820180604052508101906124fd919061356a565b15612581578181815181106125145761251461347c565b60200260200101516001600160a01b031663d294f0936040518163ffffffff1660e01b815260040160408051808303816000875af115801561255a573d6000803e3d6000fd5b505050506040513d601f19601f8201168201806040525081019061257e9190613685565b50505b8061258b81613510565b915050612479565b60005b8151811015610f06576125c18282815181106125b4576125b461347c565b6020026020010151612ef3565b806125cb81613510565b915050612596565b6002546001600160a01b031633146125ea57600080fd5b600280546001600160a01b0319166001600160a01b0392909216919091179055565b336000908152600e602052604090205460ff1661262857600080fd5b604080518481526020810183905233916001600160a01b038516917ff341246adaac6f497bc2a656f546ab9e182111d630394f0c57c710a59a2cb56791016123ce565b6000818152600b6020526040812080549091805b828110156128d657600084828154811061269b5761269b61347c565b6000918252602080832090910154888352600a825260408084206001600160a01b039092168085529190925291205490915080156128c1576001600160a01b038083166000908152600560205260409020546126f79116612ef3565b6001600160a01b0382166000908152600960205260408120805483929061271f9084906136a9565b90915550506000878152600a602090815260408083206001600160a01b0386168452909152812080548392906127569084906136a9565b9091555050801561287a576001600160a01b038281166000908152600560209081526040808320548416835260079091529081902054905163278afc8b60e21b815260048101849052602481018a9052911690639e2bf22c90604401600060405180830381600087803b1580156127cc57600080fd5b505af11580156127e0573d6000803e3d6000fd5b505050506001600160a01b038281166000908152600560209081526040808320548416835260089091529081902054905163278afc8b60e21b815260048101849052602481018a9052911690639e2bf22c90604401600060405180830381600087803b15801561284f57600080fd5b505af1158015612863573d6000803e3d6000fd5b505050508084612873919061358c565b9350612887565b61288481856136a9565b93505b60408051888152602081018390527fa9f3ca5f8a9e1580edb2741e0ba560084ec72e0067ba3423f9e9327a176882db910160405180910390a15b505080806128ce90613510565b91505061267f565b5080600360008282546128e991906136a9565b90915550506000848152600c60209081526040808320839055600b9091528120610c7891612ff4565b61291b8361266b565b81516040516339f890b560e21b8152600481018590526000907f00000000000000000000000000000000000000000000000000000000000000006001600160a01b03169063e7e242d490602401602060405180830381865afa158015612985573d6000803e3d6000fd5b505050506040513d601f19601f820116820180604052508101906129a991906135a4565b90506000806000805b858110156129f3578681815181106129cc576129cc61347c565b6020026020010151846129df919061358c565b9350806129eb81613510565b9150506129b2565b5060005b85811015612cdc576000888281518110612a1357612a1361347c565b6020908102919091018101516001600160a01b03808216600090815260058452604080822054909216808252600e909452205490925060ff1615612cc757600086888b8681518110612a6757612a6761347c565b6020026020010151612a79919061354b565b612a839190613529565b60008d8152600a602090815260408083206001600160a01b038816845290915290205490915015612ab357600080fd5b80600003612ac057600080fd5b612ac982612ef3565b60008c8152600b6020908152604080832080546001810182559084528284200180546001600160a01b0319166001600160a01b0388169081179091558352600990915281208054839290612b1e90849061358c565b909155505060008c8152600a602090815260408083206001600160a01b038716845290915281208054839290612b5590849061358c565b90915550506001600160a01b038083166000908152600760205260409081902054905163f320772360e01b815260048101849052602481018f905291169063f320772390604401600060405180830381600087803b158015612bb657600080fd5b505af1158015612bca573d6000803e3d6000fd5b5050505060086000836001600160a01b03166001600160a01b0316815260200190815260200160002060009054906101000a90046001600160a01b03166001600160a01b031663f3207723828e6040518363ffffffff1660e01b8152600401612c3d929190918252602082015260400190565b600060405180830381600087803b158015612c5757600080fd5b505af1158015612c6b573d6000803e3d6000fd5b505050508085612c7b919061358c565b9450612c87818761358c565b604080518e81526020810184905291975033917fea66f58e474bc09f580000e81f31b334d171db387d0c6098ba47bd897741679b910160405180910390a2505b50508080612cd490613510565b9150506129f7565b508015612d5e5760405163fd4a77f160e01b8152600481018990527f00000000000000000000000000000000000000000000000000000000000000006001600160a01b03169063fd4a77f190602401600060405180830381600087803b158015612d4557600080fd5b505af1158015612d59573d6000803e3d6000fd5b505050505b8160036000828254612d70919061358c565b90915550506000978852600c602052604090972096909655505050505050565b6000846001600160a01b03163b11612da757600080fd5b604080516001600160a01b0385811660248301528481166044830152606480830185905283518084039091018152608490920183526020820180516001600160e01b03166323b872dd60e01b1790529151600092839290881691612e0b91906136c0565b6000604051808303816000865af19150503d8060008114612e48576040519150601f19603f3d011682016040523d82523d6000602084013e612e4d565b606091505b5091509150818015612e77575080511580612e77575080806020019051810190612e77919061356a565b610a7957600080fd5b6001600160a01b0381166000908152600f602052604090205460ff1615612ea657600080fd5b6001600160a01b0381166000818152600f6020526040808220805460ff191660011790555133917f6661a7108aecd07864384529117d96c319c1163e3010c01390f6b704726e07de91a350565b6001600160a01b038082166000908152600660209081526040808320549093168083526009909152919020548015612fd3576001600160a01b038316600090815260136020526040812080546012549182905591612f5183836136a9565b90508015610a79576000670de0b6b3a7640000612f6e838761354b565b612f789190613529565b6001600160a01b03881660009081526010602052604090205490915060ff1615612fca576001600160a01b03871660009081526014602052604081208054839290612fc490849061358c565b90915550505b50505050505050565b6012546001600160a01b038416600090815260136020526040902055505050565b508054600082559060005260206000209081019061138491905b80821115613022576000815560010161300e565b5090565b6001600160a01b038116811461138457600080fd5b60006020828403121561304d57600080fd5b813561305881613026565b9392505050565b634e487b7160e01b600052604160045260246000fd5b604051601f8201601f1916810167ffffffffffffffff8111828210171561309e5761309e61305f565b604052919050565b600067ffffffffffffffff8211156130c0576130c061305f565b5060051b60200190565b600082601f8301126130db57600080fd5b813560206130f06130eb836130a6565b613075565b82815260059290921b8401810191818101908684111561310f57600080fd5b8286015b8481101561313357803561312681613026565b8352918301918301613113565b509695505050505050565b600082601f83011261314f57600080fd5b8135602061315f6130eb836130a6565b82815260059290921b8401810191818101908684111561317e57600080fd5b8286015b8481101561313357803567ffffffffffffffff8111156131a25760008081fd5b6131b08986838b01016130ca565b845250918301918301613182565b600080604083850312156131d157600080fd5b823567ffffffffffffffff808211156131e957600080fd5b6131f5868387016130ca565b9350602085013591508082111561320b57600080fd5b506132188582860161313e565b9150509250929050565b60006020828403121561323457600080fd5b5035919050565b6000806040838503121561324e57600080fd5b82359150602083013561326081613026565b809150509250929050565b6000806040838503121561327e57600080fd5b823567ffffffffffffffff81111561329557600080fd5b6132a1858286016130ca565b925050602083013561326081613026565b6000602082840312156132c457600080fd5b813567ffffffffffffffff8111156132db57600080fd5b6132e7848285016130ca565b949350505050565b60008060006060848603121561330457600080fd5b833567ffffffffffffffff8082111561331c57600080fd5b613328878388016130ca565b9450602086013591508082111561333e57600080fd5b5061334b8682870161313e565b925050604084013590509250925092565b6000806040838503121561336f57600080fd5b50508035926020909101359150565b60008083601f84011261339057600080fd5b50813567ffffffffffffffff8111156133a857600080fd5b6020830191508360208260051b85010111156133c357600080fd5b9250929050565b6000806000806000606086880312156133e257600080fd5b85359450602086013567ffffffffffffffff8082111561340157600080fd5b61340d89838a0161337e565b9096509450604088013591508082111561342657600080fd5b506134338882890161337e565b969995985093965092949392505050565b60008060006060848603121561345957600080fd5b83359250602084013561346b81613026565b929592945050506040919091013590565b634e487b7160e01b600052603260045260246000fd5b600081518084526020808501945080840160005b838110156134cb5781516001600160a01b0316875295820195908201906001016134a6565b509495945050505050565b6001600160a01b03831681526040602082018190526000906132e790830184613492565b634e487b7160e01b600052601160045260246000fd5b600060018201613522576135226134fa565b5060010190565b60008261354657634e487b7160e01b600052601260045260246000fd5b500490565b6000816000190483118215151615613565576135656134fa565b500290565b60006020828403121561357c57600080fd5b8151801515811461305857600080fd5b6000821982111561359f5761359f6134fa565b500190565b6000602082840312156135b657600080fd5b5051919050565b8281526040602082015260006132e76040830184613492565b600080604083850312156135e957600080fd5b82516135f481613026565b602084015190925061326081613026565b6020815260006130586020830184613492565b60006020828403121561362a57600080fd5b815161305881613026565b6001600160a01b0387811682528681166020830152858116604083015284166060820152821515608082015260c060a0820181905260009061367990830184613492565b98975050505050505050565b6000806040838503121561369857600080fd5b505080516020909101519092909150565b6000828210156136bb576136bb6134fa565b500390565b6000825160005b818110156136e157602081860181015185830152016136c7565b818111156136f0576000828501525b50919091019291505056fea26469706673582212202bee93ade55f43923959c0acb106c496967b847333ac6488887aac75076a177764736f6c634300080d0033",
  "devdoc": {
    "kind": "dev",
    "methods": {},
    "version": 1
  },
  "userdoc": {
    "kind": "user",
    "methods": {},
    "version": 1
  },
  "storageLayout": {
    "storage": [
      {
        "astId": 14550,
        "contract": "contracts/Voter.sol:Voter",
        "label": "minter",
        "offset": 0,
        "slot": "0",
        "type": "t_address"
      },
      {
        "astId": 14552,
        "contract": "contracts/Voter.sol:Voter",
        "label": "governor",
        "offset": 0,
        "slot": "1",
        "type": "t_address"
      },
      {
        "astId": 14554,
        "contract": "contracts/Voter.sol:Voter",
        "label": "emergencyCouncil",
        "offset": 0,
        "slot": "2",
        "type": "t_address"
      },
      {
        "astId": 14556,
        "contract": "contracts/Voter.sol:Voter",
        "label": "totalWeight",
        "offset": 0,
        "slot": "3",
        "type": "t_uint256"
      },
      {
        "astId": 14559,
        "contract": "contracts/Voter.sol:Voter",
        "label": "pools",
        "offset": 0,
        "slot": "4",
        "type": "t_array(t_address)dyn_storage"
      },
      {
        "astId": 14563,
        "contract": "contracts/Voter.sol:Voter",
        "label": "gauges",
        "offset": 0,
        "slot": "5",
        "type": "t_mapping(t_address,t_address)"
      },
      {
        "astId": 14567,
        "contract": "contracts/Voter.sol:Voter",
        "label": "poolForGauge",
        "offset": 0,
        "slot": "6",
        "type": "t_mapping(t_address,t_address)"
      },
      {
        "astId": 14571,
        "contract": "contracts/Voter.sol:Voter",
        "label": "internal_bribes",
        "offset": 0,
        "slot": "7",
        "type": "t_mapping(t_address,t_address)"
      },
      {
        "astId": 14575,
        "contract": "contracts/Voter.sol:Voter",
        "label": "external_bribes",
        "offset": 0,
        "slot": "8",
        "type": "t_mapping(t_address,t_address)"
      },
      {
        "astId": 14579,
        "contract": "contracts/Voter.sol:Voter",
        "label": "weights",
        "offset": 0,
        "slot": "9",
        "type": "t_mapping(t_address,t_uint256)"
      },
      {
        "astId": 14585,
        "contract": "contracts/Voter.sol:Voter",
        "label": "votes",
        "offset": 0,
        "slot": "10",
        "type": "t_mapping(t_uint256,t_mapping(t_address,t_uint256))"
      },
      {
        "astId": 14590,
        "contract": "contracts/Voter.sol:Voter",
        "label": "poolVote",
        "offset": 0,
        "slot": "11",
        "type": "t_mapping(t_uint256,t_array(t_address)dyn_storage)"
      },
      {
        "astId": 14594,
        "contract": "contracts/Voter.sol:Voter",
        "label": "usedWeights",
        "offset": 0,
        "slot": "12",
        "type": "t_mapping(t_uint256,t_uint256)"
      },
      {
        "astId": 14598,
        "contract": "contracts/Voter.sol:Voter",
        "label": "lastVoted",
        "offset": 0,
        "slot": "13",
        "type": "t_mapping(t_uint256,t_uint256)"
      },
      {
        "astId": 14602,
        "contract": "contracts/Voter.sol:Voter",
        "label": "isGauge",
        "offset": 0,
        "slot": "14",
        "type": "t_mapping(t_address,t_bool)"
      },
      {
        "astId": 14606,
        "contract": "contracts/Voter.sol:Voter",
        "label": "isWhitelisted",
        "offset": 0,
        "slot": "15",
        "type": "t_mapping(t_address,t_bool)"
      },
      {
        "astId": 14610,
        "contract": "contracts/Voter.sol:Voter",
        "label": "isAlive",
        "offset": 0,
        "slot": "16",
        "type": "t_mapping(t_address,t_bool)"
      },
      {
        "astId": 14764,
        "contract": "contracts/Voter.sol:Voter",
        "label": "_unlocked",
        "offset": 0,
        "slot": "17",
        "type": "t_uint256"
      },
      {
        "astId": 15897,
        "contract": "contracts/Voter.sol:Voter",
        "label": "index",
        "offset": 0,
        "slot": "18",
        "type": "t_uint256"
      },
      {
        "astId": 15901,
        "contract": "contracts/Voter.sol:Voter",
        "label": "supplyIndex",
        "offset": 0,
        "slot": "19",
        "type": "t_mapping(t_address,t_uint256)"
      },
      {
        "astId": 15905,
        "contract": "contracts/Voter.sol:Voter",
        "label": "claimable",
        "offset": 0,
        "slot": "20",
        "type": "t_mapping(t_address,t_uint256)"
      }
    ],
    "types": {
      "t_address": {
        "encoding": "inplace",
        "label": "address",
        "numberOfBytes": "20"
      },
      "t_array(t_address)dyn_storage": {
        "base": "t_address",
        "encoding": "dynamic_array",
        "label": "address[]",
        "numberOfBytes": "32"
      },
      "t_bool": {
        "encoding": "inplace",
        "label": "bool",
        "numberOfBytes": "1"
      },
      "t_mapping(t_address,t_address)": {
        "encoding": "mapping",
        "key": "t_address",
        "label": "mapping(address => address)",
        "numberOfBytes": "32",
        "value": "t_address"
      },
      "t_mapping(t_address,t_bool)": {
        "encoding": "mapping",
        "key": "t_address",
        "label": "mapping(address => bool)",
        "numberOfBytes": "32",
        "value": "t_bool"
      },
      "t_mapping(t_address,t_uint256)": {
        "encoding": "mapping",
        "key": "t_address",
        "label": "mapping(address => uint256)",
        "numberOfBytes": "32",
        "value": "t_uint256"
      },
      "t_mapping(t_uint256,t_array(t_address)dyn_storage)": {
        "encoding": "mapping",
        "key": "t_uint256",
        "label": "mapping(uint256 => address[])",
        "numberOfBytes": "32",
        "value": "t_array(t_address)dyn_storage"
      },
      "t_mapping(t_uint256,t_mapping(t_address,t_uint256))": {
        "encoding": "mapping",
        "key": "t_uint256",
        "label": "mapping(uint256 => mapping(address => uint256))",
        "numberOfBytes": "32",
        "value": "t_mapping(t_address,t_uint256)"
      },
      "t_mapping(t_uint256,t_uint256)": {
        "encoding": "mapping",
        "key": "t_uint256",
        "label": "mapping(uint256 => uint256)",
        "numberOfBytes": "32",
        "value": "t_uint256"
      },
      "t_uint256": {
        "encoding": "inplace",
        "label": "uint256",
        "numberOfBytes": "32"
      }
    }
  }
}